Component: ARM Compiler 5.05 update 1 (build 106) Tool: armlink [4d0efa]

==============================================================================

Section Cross References

    startup_stm32f10x_cl.o(RESET) refers to startup_stm32f10x_cl.o(STACK) for __initial_sp
    startup_stm32f10x_cl.o(RESET) refers to startup_stm32f10x_cl.o(.text) for Reset_Handler
    startup_stm32f10x_cl.o(RESET) refers to stm32f10x_it.o(.text) for NMI_Handler
    startup_stm32f10x_cl.o(.text) refers to system_stm32f10x.o(.text) for SystemInit
    startup_stm32f10x_cl.o(.text) refers to entry.o(.ARM.Collect$$$$00000000) for __main
    system_stm32f10x.o(.text) refers to system_stm32f10x.o(.data) for SystemCoreClock
    stm32f10x_adc.o(.text) refers to stm32f10x_rcc.o(.text) for RCC_APB2PeriphResetCmd
    stm32f10x_bkp.o(.text) refers to stm32f10x_rcc.o(.text) for RCC_BackupResetCmd
    stm32f10x_can.o(.text) refers to stm32f10x_rcc.o(.text) for RCC_APB1PeriphResetCmd
    stm32f10x_cec.o(.text) refers to stm32f10x_rcc.o(.text) for RCC_APB1PeriphResetCmd
    stm32f10x_dac.o(.text) refers to stm32f10x_rcc.o(.text) for RCC_APB1PeriphResetCmd
    stm32f10x_gpio.o(.text) refers to stm32f10x_rcc.o(.text) for RCC_APB2PeriphResetCmd
    stm32f10x_i2c.o(.text) refers to stm32f10x_rcc.o(.text) for RCC_APB1PeriphResetCmd
    stm32f10x_pwr.o(.text) refers to stm32f10x_rcc.o(.text) for RCC_APB1PeriphResetCmd
    stm32f10x_rcc.o(.text) refers to stm32f10x_rcc.o(.data) for APBAHBPrescTable
    stm32f10x_spi.o(.text) refers to stm32f10x_rcc.o(.text) for RCC_APB2PeriphResetCmd
    stm32f10x_tim.o(.text) refers to stm32f10x_rcc.o(.text) for RCC_APB2PeriphResetCmd
    stm32f10x_usart.o(.text) refers to stm32f10x_rcc.o(.text) for RCC_APB2PeriphResetCmd
==============================================================================

Removing Unused input sections from the image.

    Removing startup_stm32f10x_cl.o(HEAP), (512 bytes).
    Removing core_cm3.o(.emb_text), (32 bytes).
    Removing stm32f10x_adc.o(.text), (1102 bytes).
    Removing stm32f10x_bkp.o(.text), (196 bytes).
    Removing stm32f10x_can.o(.text), (2544 bytes).
    Removing stm32f10x_cec.o(.text), (288 bytes).
    Removing stm32f10x_crc.o(.text), (72 bytes).
    Removing stm32f10x_dac.o(.text), (396 bytes).
    Removing stm32f10x_dbgmcu.o(.text), (48 bytes).
    Removing stm32f10x_dma.o(.text), (596 bytes).
    Removing stm32f10x_exti.o(.text), (284 bytes).
    Removing stm32f10x_fsmc.o(.text), (1548 bytes).
    Removing stm32f10x_i2c.o(.text), (1028 bytes).
    Removing stm32f10x_pwr.o(.text), (204 bytes).
    Removing stm32f10x_rtc.o(.text), (328 bytes).
    Removing stm32f10x_sdio.o(.text), (468 bytes).
    Removing stm32f10x_spi.o(.text), (852 bytes).
    Removing stm32f10x_wwdg.o(.text), (136 bytes).
==============================================================================

Image Symbol Table

    Local Symbols

    Symbol Name                              Value     Ov Type        Size  Object(Section)

    ../clib/../cmprslib/zerorunl2.c          0x00000000   Number         0  __dczerorl2.o ABSOLUTE
    ../clib/microlib/division.c              0x00000000   Number         0  uidiv.o ABSOLUTE
    ../clib/microlib/division.c              0x00000000   Number         0  uldiv.o ABSOLUTE
    ../clib/microlib/init/entry.s            0x00000000   Number         0  entry7a.o ABSOLUTE
    ../clib/microlib/init/entry.s            0x00000000   Number         0  entry5.o ABSOLUTE
    ../clib/microlib/init/entry.s            0x00000000   Number         0  entry2.o ABSOLUTE
    ../clib/microlib/init/entry.s            0x00000000   Number         0  entry11b.o ABSOLUTE
    ../clib/microlib/init/entry.s            0x00000000   Number         0  entry7b.o ABSOLUTE
    ../clib/microlib/init/entry.s            0x00000000   Number         0  entry.o ABSOLUTE
    ../clib/microlib/init/entry.s            0x00000000   Number         0  entry9a.o ABSOLUTE
    ../clib/microlib/init/entry.s            0x00000000   Number         0  entry8a.o ABSOLUTE
    ../clib/microlib/init/entry.s            0x00000000   Number         0  entry8b.o ABSOLUTE
    ../clib/microlib/init/entry.s            0x00000000   Number         0  entry9b.o ABSOLUTE
    ../clib/microlib/init/entry.s            0x00000000   Number         0  entry10a.o ABSOLUTE
    ../clib/microlib/init/entry.s            0x00000000   Number         0  entry10b.o ABSOLUTE
    ../clib/microlib/init/entry.s            0x00000000   Number         0  entry11a.o ABSOLUTE
    ../clib/microlib/longlong.c              0x00000000   Number         0  llshl.o ABSOLUTE
    ../clib/microlib/longlong.c              0x00000000   Number         0  llushr.o ABSOLUTE
    ../clib/microlib/longlong.c              0x00000000   Number         0  llsshr.o ABSOLUTE
    ../clib/microlib/printf/printf.c         0x00000000   Number         0  printfa.o ABSOLUTE
    ../clib/microlib/printf/printf.c         0x00000000   Number         0  printf2.o ABSOLUTE
    ../clib/microlib/printf/printf.c         0x00000000   Number         0  printfb.o ABSOLUTE
    ../clib/microlib/printf/printf.c         0x00000000   Number         0  printf1.o ABSOLUTE
    ../clib/microlib/printf/printf.c         0x00000000   Number         0  printf8.o ABSOLUTE
    ../clib/microlib/printf/printf.c         0x00000000   Number         0  printf7.o ABSOLUTE
    ../clib/microlib/printf/printf.c         0x00000000   Number         0  printf6.o ABSOLUTE
    ../clib/microlib/printf/printf.c         0x00000000   Number         0  printf0.o ABSOLUTE
    ../clib/microlib/printf/printf.c         0x00000000   Number         0  printf5.o ABSOLUTE
    ../clib/microlib/printf/printf.c         0x00000000   Number         0  printf4.o ABSOLUTE
    ../clib/microlib/printf/printf.c         0x00000000   Number         0  printf3.o ABSOLUTE
    ../clib/microlib/printf/stubs.s          0x00000000   Number         0  stubs.o ABSOLUTE
    ../clib/microlib/stdio/streams.c         0x00000000   Number         0  stdout.o ABSOLUTE
    ../clib/microlib/string/memcpy.c         0x00000000   Number         0  memcpyb.o ABSOLUTE
    ../clib/microlib/string/memcpy.c         0x00000000   Number         0  memcpya.o ABSOLUTE
    ../clib/microlib/string/memset.c         0x00000000   Number         0  memseta.o ABSOLUTE
    ../clib/microlib/stubs.s                 0x00000000   Number         0  iusefp.o ABSOLUTE
    ../fplib/microlib/fpadd.c                0x00000000   Number         0  dadd.o ABSOLUTE
    ../fplib/microlib/fpdiv.c                0x00000000   Number         0  ddiv.o ABSOLUTE
    ../fplib/microlib/fpepilogue.c           0x00000000   Number         0  depilogue.o ABSOLUTE
    ../fplib/microlib/fpfix.c                0x00000000   Number         0  dfixul.o ABSOLUTE
    ../fplib/microlib/fpmul.c                0x00000000   Number         0  dmul.o ABSOLUTE
    ..\..\FATFS\src\diskio.c                 0x00000000   Number         0  diskio.o ABSOLUTE
    ..\..\FATFS\src\ff.c                     0x00000000   Number         0  ff.o ABSOLUTE
    ..\..\Libraries\CMSIS\core_cm3.c         0x00000000   Number         0  core_cm3.o ABSOLUTE
    ..\..\Libraries\CMSIS\startup\startup_stm32f10x_cl.s 0x00000000   Number         0  startup_stm32f10x_cl.o ABSOLUTE
    ..\..\Libraries\CMSIS\system_stm32f10x.c 0x00000000   Number         0  system_stm32f10x.o ABSOLUTE
    ..\..\Libraries\FWlib\src\misc.c         0x00000000   Number         0  misc.o ABSOLUTE
    ..\..\Libraries\FWlib\src\stm32f10x_adc.c 0x00000000   Number         0  stm32f10x_adc.o ABSOLUTE
    ..\..\Libraries\FWlib\src\stm32f10x_bkp.c 0x00000000   Number         0  stm32f10x_bkp.o ABSOLUTE
    ..\..\Libraries\FWlib\src\stm32f10x_can.c 0x00000000   Number         0  stm32f10x_can.o ABSOLUTE
    ..\..\Libraries\FWlib\src\stm32f10x_cec.c 0x00000000   Number         0  stm32f10x_cec.o ABSOLUTE
    ..\..\Libraries\FWlib\src\stm32f10x_crc.c 0x00000000   Number         0  stm32f10x_crc.o ABSOLUTE
    ..\..\Libraries\FWlib\src\stm32f10x_dac.c 0x00000000   Number         0  stm32f10x_dac.o ABSOLUTE
    ..\..\Libraries\FWlib\src\stm32f10x_dbgmcu.c 0x00000000   Number         0  stm32f10x_dbgmcu.o ABSOLUTE
    ..\..\Libraries\FWlib\src\stm32f10x_dma.c 0x00000000   Number         0  stm32f10x_dma.o ABSOLUTE
    ..\..\Libraries\FWlib\src\stm32f10x_exti.c 0x00000000   Number         0  stm32f10x_exti.o ABSOLUTE
    ..\..\Libraries\FWlib\src\stm32f10x_flash.c 0x00000000   Number         0  stm32f10x_flash.o ABSOLUTE
    ..\..\Libraries\FWlib\src\stm32f10x_fsmc.c 0x00000000   Number         0  stm32f10x_fsmc.o ABSOLUTE
    ..\..\Libraries\FWlib\src\stm32f10x_gpio.c 0x00000000   Number         0  stm32f10x_gpio.o ABSOLUTE
    ..\..\Libraries\FWlib\src\stm32f10x_i2c.c 0x00000000   Number         0  stm32f10x_i2c.o ABSOLUTE
    ..\..\Libraries\FWlib\src\stm32f10x_iwdg.c 0x00000000   Number         0  stm32f10x_iwdg.o ABSOLUTE
    ..\..\Libraries\FWlib\src\stm32f10x_pwr.c 0x00000000   Number         0  stm32f10x_pwr.o ABSOLUTE
    ..\..\Libraries\FWlib\src\stm32f10x_rcc.c 0x00000000   Number         0  stm32f10x_rcc.o ABSOLUTE
    ..\..\Libraries\FWlib\src\stm32f10x_rtc.c 0x00000000   Number         0  stm32f10x_rtc.o ABSOLUTE
    ..\..\Libraries\FWlib\src\stm32f10x_sdio.c 0x00000000   Number         0  stm32f10x_sdio.o ABSOLUTE
    ..\..\Libraries\FWlib\src\stm32f10x_spi.c 0x00000000   Number         0  stm32f10x_spi.o ABSOLUTE
    ..\..\Libraries\FWlib\src\stm32f10x_tim.c 0x00000000   Number         0  stm32f10x_tim.o ABSOLUTE
    ..\..\Libraries\FWlib\src\stm32f10x_usart.c 0x00000000   Number         0  stm32f10x_usart.o ABSOLUTE
    ..\..\Libraries\FWlib\src\stm32f10x_wwdg.c 0x00000000   Number         0  stm32f10x_wwdg.o ABSOLUTE
    ..\..\Libraries\STM32_USB_HOST_Library\Class\MSC\src\usbh_msc_bot.c 0x00000000   Number         0  usbh_msc_bot.o ABSOLUTE
    ..\..\Libraries\STM32_USB_HOST_Library\Class\MSC\src\usbh_msc_core.c 0x00000000   Number         0  usbh_msc_core.o ABSOLUTE
    ..\..\Libraries\STM32_USB_HOST_Library\Class\MSC\src\usbh_msc_scsi.c 0x00000000   Number         0  usbh_msc_scsi.o ABSOLUTE
    ..\..\Libraries\STM32_USB_HOST_Library\Core\src\usbh_core.c 0x00000000   Number         0  usbh_core.o ABSOLUTE
    ..\..\Libraries\STM32_USB_HOST_Library\Core\src\usbh_hcs.c 0x00000000   Number         0  usbh_hcs.o ABSOLUTE
    ..\..\Libraries\STM32_USB_HOST_Library\Core\src\usbh_ioreq.c 0x00000000   Number         0  usbh_ioreq.o ABSOLUTE
    ..\..\Libraries\STM32_USB_HOST_Library\Core\src\usbh_stdreq.c 0x00000000   Number         0  usbh_stdreq.o ABSOLUTE
    ..\..\Libraries\STM32_USB_OTG_Driver\src\usb_core.c 0x00000000   Number         0  usb_core.o ABSOLUTE
    ..\..\Libraries\STM32_USB_OTG_Driver\src\usb_hcd.c 0x00000000   Number         0  usb_hcd.o ABSOLUTE
    ..\..\Libraries\STM32_USB_OTG_Driver\src\usb_hcd_int.c 0x00000000   Number         0  usb_hcd_int.o ABSOLUTE
    ..\..\User\basic_time\basic_timer.c      0x00000000   Number         0  basic_timer.o ABSOLUTE
    ..\..\User\flash\rw_flash.c              0x00000000   Number         0  rw_flash.o ABSOLUTE
    ..\..\User\key\key.c                     0x00000000   Number         0  key.o ABSOLUTE
    ..\..\User\main.c                        0x00000000   Number         0  main.o ABSOLUTE
    ..\..\User\stm32f10x_it.c                0x00000000   Number         0  stm32f10x_it.o ABSOLUTE
    ..\..\User\usart\bsp_usart.c             0x00000000   Number         0  bsp_usart.o ABSOLUTE
    ..\..\User\usb_app\usb_bsp.c             0x00000000   Number         0  usb_bsp.o ABSOLUTE
    ..\..\User\usb_app\usbh_usr.c            0x00000000   Number         0  usbh_usr.o ABSOLUTE
    ..\..\User\user_app\user_app.c           0x00000000   Number         0  user_app.o ABSOLUTE
    ..\\..\\Libraries\\CMSIS\\core_cm3.c     0x00000000   Number         0  core_cm3.o ABSOLUTE
    ..\\..\\User\\flash\\rw_flash.c          0x00000000   Number         0  rw_flash.o ABSOLUTE
    cdrcmple.s                               0x00000000   Number         0  cdrcmple.o ABSOLUTE
    dc.s                                     0x00000000   Number         0  dc.o ABSOLUTE
    handlers.s                               0x00000000   Number         0  handlers.o ABSOLUTE
    init.s                                   0x00000000   Number         0  init.o ABSOLUTE
    RESET                                    0x08000000   Section      336  startup_stm32f10x_cl.o(RESET)
    .ARM.Collect$$$$00000000                 0x08000150   Section        0  entry.o(.ARM.Collect$$$$00000000)
    .ARM.Collect$$$$00000001                 0x08000150   Section        4  entry2.o(.ARM.Collect$$$$00000001)
    .ARM.Collect$$$$00000004                 0x08000154   Section        4  entry5.o(.ARM.Collect$$$$00000004)
    .ARM.Collect$$$$00000008                 0x08000158   Section        0  entry7b.o(.ARM.Collect$$$$00000008)
    .ARM.Collect$$$$0000000A                 0x08000158   Section        0  entry8b.o(.ARM.Collect$$$$0000000A)
    .ARM.Collect$$$$0000000B                 0x08000158   Section        8  entry9a.o(.ARM.Collect$$$$0000000B)
    .ARM.Collect$$$$0000000D                 0x08000160   Section        0  entry10a.o(.ARM.Collect$$$$0000000D)
    .ARM.Collect$$$$0000000F                 0x08000160   Section        0  entry11a.o(.ARM.Collect$$$$0000000F)
    .ARM.Collect$$$$00002712                 0x08000160   Section        4  entry2.o(.ARM.Collect$$$$00002712)
    __lit__00000000                          0x08000160   Data           4  entry2.o(.ARM.Collect$$$$00002712)
    .emb_text                                0x08000164   Section        6  rw_flash.o(.emb_text)
    .text                                    0x0800016c   Section       36  startup_stm32f10x_cl.o(.text)
    .text                                    0x08000190   Section        0  system_stm32f10x.o(.text)
    SetSysClockTo72                          0x08000191   Thumb Code   264  system_stm32f10x.o(.text)
    SetSysClock                              0x08000299   Thumb Code     8  system_stm32f10x.o(.text)
    .text                                    0x08000414   Section        0  misc.o(.text)
    .text                                    0x080004f0   Section        0  stm32f10x_flash.o(.text)
    .text                                    0x08000aac   Section        0  stm32f10x_gpio.o(.text)
    .text                                    0x08000e08   Section        0  stm32f10x_iwdg.o(.text)
    .text                                    0x08000e48   Section        0  stm32f10x_rcc.o(.text)
    .text                                    0x0800134c   Section        0  stm32f10x_tim.o(.text)
    TI4_Config                               0x080017f3   Thumb Code   130  stm32f10x_tim.o(.text)
    TI3_Config                               0x08001887   Thumb Code   122  stm32f10x_tim.o(.text)
    TI2_Config                               0x0800191b   Thumb Code   130  stm32f10x_tim.o(.text)
    TI1_Config                               0x080019af   Thumb Code   108  stm32f10x_tim.o(.text)
    .text                                    0x08002168   Section        0  stm32f10x_usart.o(.text)
    .text                                    0x08002570   Section        0  main.o(.text)
    .text                                    0x080026e8   Section        0  stm32f10x_it.o(.text)
    .text                                    0x0800283c   Section        0  bsp_usart.o(.text)
    NVIC_Configuration                       0x0800283d   Thumb Code    38  bsp_usart.o(.text)
    .text                                    0x080029e4   Section        0  rw_flash.o(.text)
    .text                                    0x08002bd4   Section        0  key.o(.text)
    Delay_ms                                 0x08002c4d   Thumb Code   128  key.o(.text)
    .text                                    0x08002d68   Section        0  user_app.o(.text)
    .text                                    0x080031f0   Section        0  basic_timer.o(.text)
    NVIC_Configuration                       0x080031f1   Thumb Code    42  basic_timer.o(.text)
    .text                                    0x08003260   Section        0  usbh_core.o(.text)
    USBH_HandleEnum                          0x08003587   Thumb Code   474  usbh_core.o(.text)
    .text                                    0x08003a16   Section        0  usbh_hcs.o(.text)
    USBH_GetFreeChannel                      0x08003b15   Thumb Code    40  usbh_hcs.o(.text)
    .text                                    0x08003b9c   Section        0  usbh_ioreq.o(.text)
    USBH_SubmitSetupRequest                  0x08003b9d   Thumb Code    24  usbh_ioreq.o(.text)
    .text                                    0x08003f44   Section        0  usbh_stdreq.o(.text)
    USBH_ParseDevDesc                        0x08003f45   Thumb Code    88  usbh_stdreq.o(.text)
    USBH_ParseEPDesc                         0x08004019   Thumb Code    32  usbh_stdreq.o(.text)
    USBH_ParseInterfaceDesc                  0x08004039   Thumb Code    38  usbh_stdreq.o(.text)
    USBH_ParseStringDesc                     0x08004205   Thumb Code    54  usbh_stdreq.o(.text)
    .text                                    0x080043a0   Section        0  usbh_msc_bot.o(.text)
    .text                                    0x080048bc   Section        0  usbh_msc_core.o(.text)
    USBH_MSC_InterfaceInit                   0x080048bd   Thumb Code   320  usbh_msc_core.o(.text)
    USBH_MSC_InterfaceDeInit                 0x080049fd   Thumb Code    72  usbh_msc_core.o(.text)
    USBH_MSC_ClassRequest                    0x08004a45   Thumb Code    14  usbh_msc_core.o(.text)
    USBH_MSC_GETMaxLUN                       0x08004a8d   Thumb Code    40  usbh_msc_core.o(.text)
    USBH_MSC_Handle                          0x08004ab5   Thumb Code   372  usbh_msc_core.o(.text)
    .text                                    0x08004d6c   Section        0  usbh_msc_scsi.o(.text)
    .text                                    0x08005260   Section        0  usb_hcd.o(.text)
    .text                                    0x0800534c   Section        0  usb_hcd_int.o(.text)
    USB_OTG_USBH_handle_IncompletePeriodicXfer_ISR 0x0800534d   Thumb Code    70  usb_hcd_int.o(.text)
    USB_OTG_USBH_handle_Disconnect_ISR       0x08005393   Thumb Code    40  usb_hcd_int.o(.text)
    USB_OTG_USBH_handle_port_ISR             0x080053bb   Thumb Code   310  usb_hcd_int.o(.text)
    USB_OTG_USBH_handle_hc_n_Out_ISR         0x080054f1   Thumb Code   960  usb_hcd_int.o(.text)
    USB_OTG_USBH_handle_hc_n_In_ISR          0x080058b1   Thumb Code  1054  usb_hcd_int.o(.text)
    USB_OTG_USBH_handle_hc_ISR               0x08005ccf   Thumb Code    86  usb_hcd_int.o(.text)
    USB_OTG_USBH_handle_ptxfempty_ISR        0x08005d25   Thumb Code   310  usb_hcd_int.o(.text)
    USB_OTG_USBH_handle_nptxfempty_ISR       0x08005e5b   Thumb Code   310  usb_hcd_int.o(.text)
    USB_OTG_USBH_handle_rx_qlvl_ISR          0x08005f91   Thumb Code   356  usb_hcd_int.o(.text)
    USB_OTG_USBH_handle_sof_ISR              0x080060f5   Thumb Code    38  usb_hcd_int.o(.text)
    .text                                    0x080061c8   Section        0  usb_core.o(.text)
    USB_OTG_EnableCommonInt                  0x080061c9   Thumb Code    52  usb_core.o(.text)
    USB_OTG_CoreReset                        0x080061fd   Thumb Code   108  usb_core.o(.text)
    .text                                    0x08006e18   Section        0  usb_bsp.o(.text)
    SysTick_Config                           0x08006e19   Thumb Code    76  usb_bsp.o(.text)
    Delay_us                                 0x08006ea7   Thumb Code    64  usb_bsp.o(.text)
    Delay_ms                                 0x08006ee7   Thumb Code    66  usb_bsp.o(.text)
    .text                                    0x08006f50   Section        0  usbh_usr.o(.text)
    .text                                    0x08007104   Section        0  diskio.o(.text)
    .text                                    0x08007210   Section        0  ff.o(.text)
    mem_cpy                                  0x08007211   Thumb Code    26  ff.o(.text)
    mem_set                                  0x0800722b   Thumb Code    20  ff.o(.text)
    mem_cmp                                  0x0800723f   Thumb Code    38  ff.o(.text)
    chk_chr                                  0x08007265   Thumb Code    20  ff.o(.text)
    sync_window                              0x08007279   Thumb Code    82  ff.o(.text)
    move_window                              0x080072cb   Thumb Code    52  ff.o(.text)
    sync_fs                                  0x080072ff   Thumb Code   200  ff.o(.text)
    remove_chain                             0x080076a7   Thumb Code   108  ff.o(.text)
    create_chain                             0x08007713   Thumb Code   214  ff.o(.text)
    dir_sdi                                  0x080077e9   Thumb Code   200  ff.o(.text)
    dir_next                                 0x080078b1   Thumb Code   314  ff.o(.text)
    dir_alloc                                0x080079eb   Thumb Code    92  ff.o(.text)
    ld_clust                                 0x08007a47   Thumb Code    32  ff.o(.text)
    st_clust                                 0x08007a67   Thumb Code    16  ff.o(.text)
    dir_find                                 0x08007a77   Thumb Code    92  ff.o(.text)
    dir_read                                 0x08007ad3   Thumb Code   114  ff.o(.text)
    dir_register                             0x08007b45   Thumb Code    58  ff.o(.text)
    dir_remove                               0x08007b7f   Thumb Code    54  ff.o(.text)
    get_fileinfo                             0x08007bb5   Thumb Code   110  ff.o(.text)
    create_name                              0x08007c23   Thumb Code   262  ff.o(.text)
    follow_path                              0x08007d29   Thumb Code   144  ff.o(.text)
    get_ldnumber                             0x08007db9   Thumb Code    72  ff.o(.text)
    check_fs                                 0x08007e01   Thumb Code   140  ff.o(.text)
    find_volume                              0x08007e8d   Thumb Code   992  ff.o(.text)
    validate                                 0x0800826d   Thumb Code    50  ff.o(.text)
    .text                                    0x08009146   Section        0  memcpya.o(.text)
    .text                                    0x0800916a   Section        0  memseta.o(.text)
    .text                                    0x0800918e   Section        0  uidiv.o(.text)
    .text                                    0x080091bc   Section       36  init.o(.text)
    .text                                    0x080091e0   Section        0  __dczerorl2.o(.text)
    i.__0printf$6                            0x08009238   Section        0  printf6.o(i.__0printf$6)
    i.__scatterload_copy                     0x08009258   Section       14  handlers.o(i.__scatterload_copy)
    i.__scatterload_null                     0x08009266   Section        2  handlers.o(i.__scatterload_null)
    i.__scatterload_zeroinit                 0x08009268   Section       14  handlers.o(i.__scatterload_zeroinit)
    i._printf_core                           0x08009278   Section        0  printf6.o(i._printf_core)
    _printf_core                             0x08009279   Thumb Code   748  printf6.o(i._printf_core)
    i._printf_post_padding                   0x08009568   Section        0  printf6.o(i._printf_post_padding)
    _printf_post_padding                     0x08009569   Thumb Code    36  printf6.o(i._printf_post_padding)
    i._printf_pre_padding                    0x0800958c   Section        0  printf6.o(i._printf_pre_padding)
    _printf_pre_padding                      0x0800958d   Thumb Code    46  printf6.o(i._printf_pre_padding)
    .constdata                               0x080095bc   Section       22  user_app.o(.constdata)
    .data                                    0x20000000   Section       20  system_stm32f10x.o(.data)
    .data                                    0x20000014   Section       20  stm32f10x_rcc.o(.data)
    APBAHBPrescTable                         0x20000014   Data          16  stm32f10x_rcc.o(.data)
    ADCPrescTable                            0x20000024   Data           4  stm32f10x_rcc.o(.data)
    .data                                    0x20000028   Section        8  main.o(.data)
    .data                                    0x20000030   Section        4  stm32f10x_it.o(.data)
    .data                                    0x20000034   Section        4  rw_flash.o(.data)
    .data                                    0x20000038   Section        8  user_app.o(.data)
    .data                                    0x20000040   Section       30  usbh_core.o(.data)
    timeout                                  0x2000005c   Data           2  usbh_core.o(.data)
    .data                                    0x2000005e   Section        3  usbh_stdreq.o(.data)
    prev_ep_size                             0x2000005e   Data           2  usbh_stdreq.o(.data)
    prev_itf                                 0x20000060   Data           1  usbh_stdreq.o(.data)
    .data                                    0x20000064   Section       21  usbh_msc_bot.o(.data)
    BOTStallErrorCount                       0x20000064   Data           4  usbh_msc_bot.o(.data)
    xfer_error_count                         0x20000068   Data           1  usbh_msc_bot.o(.data)
    remainingDataLength                      0x2000006c   Data           4  usbh_msc_bot.o(.data)
    datapointer                              0x20000070   Data           4  usbh_msc_bot.o(.data)
    datapointer_prev                         0x20000074   Data           4  usbh_msc_bot.o(.data)
    error_direction                          0x20000078   Data           1  usbh_msc_bot.o(.data)
    .data                                    0x2000007c   Section       29  usbh_msc_core.o(.data)
    maxLunExceed                             0x20000098   Data           1  usbh_msc_core.o(.data)
    .data                                    0x20000099   Section        1  usbh_msc_scsi.o(.data)
    status                                   0x20000099   Data           1  usbh_msc_scsi.o(.data)
    .data                                    0x2000009c   Section      486  usbh_usr.o(.data)
    .data                                    0x20000284   Section        6  ff.o(.data)
    FatFs                                    0x20000284   Data           4  ff.o(.data)
    Fsid                                     0x20000288   Data           2  ff.o(.data)
    .data                                    0x2000028c   Section        4  stdout.o(.data)
    .bss                                     0x20000290   Section     1636  main.o(.bss)
    .bss                                     0x200008f4   Section       20  stm32f10x_it.o(.bss)
    .bss                                     0x20000908   Section     2048  rw_flash.o(.bss)
    .bss                                     0x20001108   Section    14472  user_app.o(.bss)
    .bss                                     0x20004990   Section      512  usbh_stdreq.o(.bss)
    .bss                                     0x20004b90   Section       64  usbh_msc_bot.o(.bss)
    .bss                                     0x20004bd0   Section       74  usbh_msc_core.o(.bss)
    .bss                                     0x20004c1c   Section     1040  usbh_msc_scsi.o(.bss)
    STACK                                    0x20005030   Section     1024  startup_stm32f10x_cl.o(STACK)

    Global Symbols

    Symbol Name                              Value     Ov Type        Size  Object(Section)

    BuildAttributes$$THM_ISAv4$P$D$K$B$S$PE$A:L22UL41UL21$X:L11$S22US41US21$IEEE1$IW$USESV6$~STKCKD$USESV7$~SHL$OSPACE$ROPI$EBA8$MICROLIB$REQ8$PRES8$EABIv2 0x00000000   Number         0  anon$$obj.o ABSOLUTE
    __ARM_use_no_argv                        0x00000000   Number         0  main.o ABSOLUTE
    _printf_a                                0x00000000   Number         0  stubs.o ABSOLUTE
    _printf_c                                0x00000000   Number         0  stubs.o ABSOLUTE
    _printf_charcount                        0x00000000   Number         0  stubs.o ABSOLUTE
    _printf_d                                0x00000000   Number         0  stubs.o ABSOLUTE
    _printf_e                                0x00000000   Number         0  stubs.o ABSOLUTE
    _printf_f                                0x00000000   Number         0  stubs.o ABSOLUTE
    _printf_flags                            0x00000000   Number         0  stubs.o ABSOLUTE
    _printf_fp_dec                           0x00000000   Number         0  stubs.o ABSOLUTE
    _printf_fp_hex                           0x00000000   Number         0  stubs.o ABSOLUTE
    _printf_g                                0x00000000   Number         0  stubs.o ABSOLUTE
    _printf_i                                0x00000000   Number         0  stubs.o ABSOLUTE
    _printf_int_dec                          0x00000000   Number         0  stubs.o ABSOLUTE
    _printf_l                                0x00000000   Number         0  stubs.o ABSOLUTE
    _printf_lc                               0x00000000   Number         0  stubs.o ABSOLUTE
    _printf_ll                               0x00000000   Number         0  stubs.o ABSOLUTE
    _printf_lld                              0x00000000   Number         0  stubs.o ABSOLUTE
    _printf_lli                              0x00000000   Number         0  stubs.o ABSOLUTE
    _printf_llo                              0x00000000   Number         0  stubs.o ABSOLUTE
    _printf_llu                              0x00000000   Number         0  stubs.o ABSOLUTE
    _printf_llx                              0x00000000   Number         0  stubs.o ABSOLUTE
    _printf_longlong_dec                     0x00000000   Number         0  stubs.o ABSOLUTE
    _printf_longlong_hex                     0x00000000   Number         0  stubs.o ABSOLUTE
    _printf_longlong_oct                     0x00000000   Number         0  stubs.o ABSOLUTE
    _printf_ls                               0x00000000   Number         0  stubs.o ABSOLUTE
    _printf_mbtowc                           0x00000000   Number         0  stubs.o ABSOLUTE
    _printf_n                                0x00000000   Number         0  stubs.o ABSOLUTE
    _printf_o                                0x00000000   Number         0  stubs.o ABSOLUTE
    _printf_p                                0x00000000   Number         0  stubs.o ABSOLUTE
    _printf_percent                          0x00000000   Number         0  stubs.o ABSOLUTE
    _printf_pre_padding                      0x00000000   Number         0  stubs.o ABSOLUTE
    _printf_return_value                     0x00000000   Number         0  stubs.o ABSOLUTE
    _printf_s                                0x00000000   Number         0  stubs.o ABSOLUTE
    _printf_sizespec                         0x00000000   Number         0  stubs.o ABSOLUTE
    _printf_str                              0x00000000   Number         0  stubs.o ABSOLUTE
    _printf_truncate_signed                  0x00000000   Number         0  stubs.o ABSOLUTE
    _printf_truncate_unsigned                0x00000000   Number         0  stubs.o ABSOLUTE
    _printf_u                                0x00000000   Number         0  stubs.o ABSOLUTE
    _printf_wc                               0x00000000   Number         0  stubs.o ABSOLUTE
    _printf_wctomb                           0x00000000   Number         0  stubs.o ABSOLUTE
    _printf_widthprec                        0x00000000   Number         0  stubs.o ABSOLUTE
    _printf_x                                0x00000000   Number         0  stubs.o ABSOLUTE
    __cpp_initialize__aeabi_                  - Undefined Weak Reference
    __cxa_finalize                            - Undefined Weak Reference
    _clock_init                               - Undefined Weak Reference
    _microlib_exit                            - Undefined Weak Reference
    __Vectors_Size                           0x00000150   Number         0  startup_stm32f10x_cl.o ABSOLUTE
    __Vectors                                0x08000000   Data           4  startup_stm32f10x_cl.o(RESET)
    __Vectors_End                            0x08000150   Data           0  startup_stm32f10x_cl.o(RESET)
    __main                                   0x08000151   Thumb Code     0  entry.o(.ARM.Collect$$$$00000000)
    _main_stk                                0x08000151   Thumb Code     0  entry2.o(.ARM.Collect$$$$00000001)
    _main_scatterload                        0x08000155   Thumb Code     0  entry5.o(.ARM.Collect$$$$00000004)
    __main_after_scatterload                 0x08000159   Thumb Code     0  entry5.o(.ARM.Collect$$$$00000004)
    _main_clock                              0x08000159   Thumb Code     0  entry7b.o(.ARM.Collect$$$$00000008)
    _main_cpp_init                           0x08000159   Thumb Code     0  entry8b.o(.ARM.Collect$$$$0000000A)
    _main_init                               0x08000159   Thumb Code     0  entry9a.o(.ARM.Collect$$$$0000000B)
    __rt_final_cpp                           0x08000161   Thumb Code     0  entry10a.o(.ARM.Collect$$$$0000000D)
    __rt_final_exit                          0x08000161   Thumb Code     0  entry11a.o(.ARM.Collect$$$$0000000F)
    MSR_MSP                                  0x08000165   Thumb Code     6  rw_flash.o(.emb_text)
    Reset_Handler                            0x0800016d   Thumb Code     8  startup_stm32f10x_cl.o(.text)
    ADC1_2_IRQHandler                        0x08000187   Thumb Code     0  startup_stm32f10x_cl.o(.text)
    CAN1_RX0_IRQHandler                      0x08000187   Thumb Code     0  startup_stm32f10x_cl.o(.text)
    CAN1_RX1_IRQHandler                      0x08000187   Thumb Code     0  startup_stm32f10x_cl.o(.text)
    CAN1_SCE_IRQHandler                      0x08000187   Thumb Code     0  startup_stm32f10x_cl.o(.text)
    CAN1_TX_IRQHandler                       0x08000187   Thumb Code     0  startup_stm32f10x_cl.o(.text)
    CAN2_RX0_IRQHandler                      0x08000187   Thumb Code     0  startup_stm32f10x_cl.o(.text)
    CAN2_RX1_IRQHandler                      0x08000187   Thumb Code     0  startup_stm32f10x_cl.o(.text)
    CAN2_SCE_IRQHandler                      0x08000187   Thumb Code     0  startup_stm32f10x_cl.o(.text)
    CAN2_TX_IRQHandler                       0x08000187   Thumb Code     0  startup_stm32f10x_cl.o(.text)
    DMA1_Channel1_IRQHandler                 0x08000187   Thumb Code     0  startup_stm32f10x_cl.o(.text)
    DMA1_Channel2_IRQHandler                 0x08000187   Thumb Code     0  startup_stm32f10x_cl.o(.text)
    DMA1_Channel3_IRQHandler                 0x08000187   Thumb Code     0  startup_stm32f10x_cl.o(.text)
    DMA1_Channel4_IRQHandler                 0x08000187   Thumb Code     0  startup_stm32f10x_cl.o(.text)
    DMA1_Channel5_IRQHandler                 0x08000187   Thumb Code     0  startup_stm32f10x_cl.o(.text)
    DMA1_Channel6_IRQHandler                 0x08000187   Thumb Code     0  startup_stm32f10x_cl.o(.text)
    DMA1_Channel7_IRQHandler                 0x08000187   Thumb Code     0  startup_stm32f10x_cl.o(.text)
    DMA2_Channel1_IRQHandler                 0x08000187   Thumb Code     0  startup_stm32f10x_cl.o(.text)
    DMA2_Channel2_IRQHandler                 0x08000187   Thumb Code     0  startup_stm32f10x_cl.o(.text)
    DMA2_Channel3_IRQHandler                 0x08000187   Thumb Code     0  startup_stm32f10x_cl.o(.text)
    DMA2_Channel4_IRQHandler                 0x08000187   Thumb Code     0  startup_stm32f10x_cl.o(.text)
    DMA2_Channel5_IRQHandler                 0x08000187   Thumb Code     0  startup_stm32f10x_cl.o(.text)
    ETH_IRQHandler                           0x08000187   Thumb Code     0  startup_stm32f10x_cl.o(.text)
    ETH_WKUP_IRQHandler                      0x08000187   Thumb Code     0  startup_stm32f10x_cl.o(.text)
    EXTI0_IRQHandler                         0x08000187   Thumb Code     0  startup_stm32f10x_cl.o(.text)
    EXTI15_10_IRQHandler                     0x08000187   Thumb Code     0  startup_stm32f10x_cl.o(.text)
    EXTI1_IRQHandler                         0x08000187   Thumb Code     0  startup_stm32f10x_cl.o(.text)
    EXTI2_IRQHandler                         0x08000187   Thumb Code     0  startup_stm32f10x_cl.o(.text)
    EXTI3_IRQHandler                         0x08000187   Thumb Code     0  startup_stm32f10x_cl.o(.text)
    EXTI4_IRQHandler                         0x08000187   Thumb Code     0  startup_stm32f10x_cl.o(.text)
    EXTI9_5_IRQHandler                       0x08000187   Thumb Code     0  startup_stm32f10x_cl.o(.text)
    FLASH_IRQHandler                         0x08000187   Thumb Code     0  startup_stm32f10x_cl.o(.text)
    I2C1_ER_IRQHandler                       0x08000187   Thumb Code     0  startup_stm32f10x_cl.o(.text)
    I2C1_EV_IRQHandler                       0x08000187   Thumb Code     0  startup_stm32f10x_cl.o(.text)
    I2C2_ER_IRQHandler                       0x08000187   Thumb Code     0  startup_stm32f10x_cl.o(.text)
    I2C2_EV_IRQHandler                       0x08000187   Thumb Code     0  startup_stm32f10x_cl.o(.text)
    OTG_FS_WKUP_IRQHandler                   0x08000187   Thumb Code     0  startup_stm32f10x_cl.o(.text)
    PVD_IRQHandler                           0x08000187   Thumb Code     0  startup_stm32f10x_cl.o(.text)
    RCC_IRQHandler                           0x08000187   Thumb Code     0  startup_stm32f10x_cl.o(.text)
    RTCAlarm_IRQHandler                      0x08000187   Thumb Code     0  startup_stm32f10x_cl.o(.text)
    RTC_IRQHandler                           0x08000187   Thumb Code     0  startup_stm32f10x_cl.o(.text)
    SPI1_IRQHandler                          0x08000187   Thumb Code     0  startup_stm32f10x_cl.o(.text)
    SPI2_IRQHandler                          0x08000187   Thumb Code     0  startup_stm32f10x_cl.o(.text)
    SPI3_IRQHandler                          0x08000187   Thumb Code     0  startup_stm32f10x_cl.o(.text)
    TAMPER_IRQHandler                        0x08000187   Thumb Code     0  startup_stm32f10x_cl.o(.text)
    TIM1_BRK_IRQHandler                      0x08000187   Thumb Code     0  startup_stm32f10x_cl.o(.text)
    TIM1_CC_IRQHandler                       0x08000187   Thumb Code     0  startup_stm32f10x_cl.o(.text)
    TIM1_TRG_COM_IRQHandler                  0x08000187   Thumb Code     0  startup_stm32f10x_cl.o(.text)
    TIM1_UP_IRQHandler                       0x08000187   Thumb Code     0  startup_stm32f10x_cl.o(.text)
    TIM2_IRQHandler                          0x08000187   Thumb Code     0  startup_stm32f10x_cl.o(.text)
    TIM3_IRQHandler                          0x08000187   Thumb Code     0  startup_stm32f10x_cl.o(.text)
    TIM4_IRQHandler                          0x08000187   Thumb Code     0  startup_stm32f10x_cl.o(.text)
    TIM5_IRQHandler                          0x08000187   Thumb Code     0  startup_stm32f10x_cl.o(.text)
    TIM7_IRQHandler                          0x08000187   Thumb Code     0  startup_stm32f10x_cl.o(.text)
    UART4_IRQHandler                         0x08000187   Thumb Code     0  startup_stm32f10x_cl.o(.text)
    UART5_IRQHandler                         0x08000187   Thumb Code     0  startup_stm32f10x_cl.o(.text)
    USART1_IRQHandler                        0x08000187   Thumb Code     0  startup_stm32f10x_cl.o(.text)
    USART3_IRQHandler                        0x08000187   Thumb Code     0  startup_stm32f10x_cl.o(.text)
    WWDG_IRQHandler                          0x08000187   Thumb Code     0  startup_stm32f10x_cl.o(.text)
    SystemInit                               0x080002a1   Thumb Code    92  system_stm32f10x.o(.text)
    SystemCoreClockUpdate                    0x080002fd   Thumb Code   232  system_stm32f10x.o(.text)
    NVIC_PriorityGroupConfig                 0x08000415   Thumb Code    10  misc.o(.text)
    NVIC_Init                                0x0800041f   Thumb Code   100  misc.o(.text)
    NVIC_SetVectorTable                      0x08000483   Thumb Code    14  misc.o(.text)
    NVIC_SystemLPConfig                      0x08000491   Thumb Code    34  misc.o(.text)
    SysTick_CLKSourceConfig                  0x080004b3   Thumb Code    40  misc.o(.text)
    FLASH_SetLatency                         0x080004f1   Thumb Code    18  stm32f10x_flash.o(.text)
    FLASH_HalfCycleAccessCmd                 0x08000503   Thumb Code    22  stm32f10x_flash.o(.text)
    FLASH_PrefetchBufferCmd                  0x08000519   Thumb Code    22  stm32f10x_flash.o(.text)
    FLASH_Unlock                             0x0800052f   Thumb Code    12  stm32f10x_flash.o(.text)
    FLASH_UnlockBank1                        0x0800053b   Thumb Code    12  stm32f10x_flash.o(.text)
    FLASH_Lock                               0x08000547   Thumb Code    14  stm32f10x_flash.o(.text)
    FLASH_LockBank1                          0x08000555   Thumb Code    14  stm32f10x_flash.o(.text)
    FLASH_GetBank1Status                     0x08000563   Thumb Code    48  stm32f10x_flash.o(.text)
    FLASH_WaitForLastOperation               0x08000593   Thumb Code    38  stm32f10x_flash.o(.text)
    FLASH_ErasePage                          0x080005b9   Thumb Code    72  stm32f10x_flash.o(.text)
    FLASH_EraseAllPages                      0x08000601   Thumb Code    68  stm32f10x_flash.o(.text)
    FLASH_WaitForLastBank1Operation          0x08000645   Thumb Code    38  stm32f10x_flash.o(.text)
    FLASH_EraseAllBank1Pages                 0x0800066b   Thumb Code    68  stm32f10x_flash.o(.text)
    FLASH_GetReadOutProtectionStatus         0x080006af   Thumb Code    20  stm32f10x_flash.o(.text)
    FLASH_EraseOptionBytes                   0x080006c3   Thumb Code   150  stm32f10x_flash.o(.text)
    FLASH_ProgramWord                        0x08000759   Thumb Code   102  stm32f10x_flash.o(.text)
    FLASH_ProgramHalfWord                    0x080007bf   Thumb Code    60  stm32f10x_flash.o(.text)
    FLASH_ProgramOptionByteData              0x080007fb   Thumb Code    72  stm32f10x_flash.o(.text)
    FLASH_EnableWriteProtection              0x08000843   Thumb Code   200  stm32f10x_flash.o(.text)
    FLASH_ReadOutProtection                  0x0800090b   Thumb Code   156  stm32f10x_flash.o(.text)
    FLASH_UserOptionByteConfig               0x080009a7   Thumb Code    88  stm32f10x_flash.o(.text)
    FLASH_GetUserOptionByte                  0x080009ff   Thumb Code     8  stm32f10x_flash.o(.text)
    FLASH_GetWriteProtectionOptionByte       0x08000a07   Thumb Code     6  stm32f10x_flash.o(.text)
    FLASH_GetPrefetchBufferStatus            0x08000a0d   Thumb Code    20  stm32f10x_flash.o(.text)
    FLASH_ITConfig                           0x08000a21   Thumb Code    26  stm32f10x_flash.o(.text)
    FLASH_GetFlagStatus                      0x08000a3b   Thumb Code    42  stm32f10x_flash.o(.text)
    FLASH_ClearFlag                          0x08000a65   Thumb Code     6  stm32f10x_flash.o(.text)
    FLASH_GetStatus                          0x08000a6b   Thumb Code    48  stm32f10x_flash.o(.text)
    GPIO_DeInit                              0x08000aad   Thumb Code   172  stm32f10x_gpio.o(.text)
    GPIO_AFIODeInit                          0x08000b59   Thumb Code    20  stm32f10x_gpio.o(.text)
    GPIO_Init                                0x08000b6d   Thumb Code   278  stm32f10x_gpio.o(.text)
    GPIO_StructInit                          0x08000c83   Thumb Code    16  stm32f10x_gpio.o(.text)
    GPIO_ReadInputDataBit                    0x08000c93   Thumb Code    18  stm32f10x_gpio.o(.text)
    GPIO_ReadInputData                       0x08000ca5   Thumb Code     8  stm32f10x_gpio.o(.text)
    GPIO_ReadOutputDataBit                   0x08000cad   Thumb Code    18  stm32f10x_gpio.o(.text)
    GPIO_ReadOutputData                      0x08000cbf   Thumb Code     8  stm32f10x_gpio.o(.text)
    GPIO_SetBits                             0x08000cc7   Thumb Code     4  stm32f10x_gpio.o(.text)
    GPIO_ResetBits                           0x08000ccb   Thumb Code     4  stm32f10x_gpio.o(.text)
    GPIO_WriteBit                            0x08000ccf   Thumb Code    10  stm32f10x_gpio.o(.text)
    GPIO_Write                               0x08000cd9   Thumb Code     4  stm32f10x_gpio.o(.text)
    GPIO_PinLockConfig                       0x08000cdd   Thumb Code    18  stm32f10x_gpio.o(.text)
    GPIO_EventOutputConfig                   0x08000cef   Thumb Code    26  stm32f10x_gpio.o(.text)
    GPIO_EventOutputCmd                      0x08000d09   Thumb Code     6  stm32f10x_gpio.o(.text)
    GPIO_PinRemapConfig                      0x08000d0f   Thumb Code   138  stm32f10x_gpio.o(.text)
    GPIO_EXTILineConfig                      0x08000d99   Thumb Code    66  stm32f10x_gpio.o(.text)
    GPIO_ETH_MediaInterfaceConfig            0x08000ddb   Thumb Code     8  stm32f10x_gpio.o(.text)
    IWDG_WriteAccessCmd                      0x08000e09   Thumb Code     6  stm32f10x_iwdg.o(.text)
    IWDG_SetPrescaler                        0x08000e0f   Thumb Code     6  stm32f10x_iwdg.o(.text)
    IWDG_SetReload                           0x08000e15   Thumb Code     6  stm32f10x_iwdg.o(.text)
    IWDG_ReloadCounter                       0x08000e1b   Thumb Code    10  stm32f10x_iwdg.o(.text)
    IWDG_Enable                              0x08000e25   Thumb Code    10  stm32f10x_iwdg.o(.text)
    IWDG_GetFlagStatus                       0x08000e2f   Thumb Code    20  stm32f10x_iwdg.o(.text)
    RCC_DeInit                               0x08000e49   Thumb Code    78  stm32f10x_rcc.o(.text)
    RCC_HSEConfig                            0x08000e97   Thumb Code    70  stm32f10x_rcc.o(.text)
    RCC_GetFlagStatus                        0x08000edd   Thumb Code    56  stm32f10x_rcc.o(.text)
    RCC_WaitForHSEStartUp                    0x08000f15   Thumb Code    56  stm32f10x_rcc.o(.text)
    RCC_AdjustHSICalibrationValue            0x08000f4d   Thumb Code    20  stm32f10x_rcc.o(.text)
    RCC_HSICmd                               0x08000f61   Thumb Code     6  stm32f10x_rcc.o(.text)
    RCC_PLLConfig                            0x08000f67   Thumb Code    24  stm32f10x_rcc.o(.text)
    RCC_PLLCmd                               0x08000f7f   Thumb Code     6  stm32f10x_rcc.o(.text)
    RCC_PREDIV1Config                        0x08000f85   Thumb Code    24  stm32f10x_rcc.o(.text)
    RCC_PREDIV2Config                        0x08000f9d   Thumb Code    18  stm32f10x_rcc.o(.text)
    RCC_PLL2Config                           0x08000faf   Thumb Code    18  stm32f10x_rcc.o(.text)
    RCC_PLL2Cmd                              0x08000fc1   Thumb Code     6  stm32f10x_rcc.o(.text)
    RCC_PLL3Config                           0x08000fc7   Thumb Code    18  stm32f10x_rcc.o(.text)
    RCC_PLL3Cmd                              0x08000fd9   Thumb Code     6  stm32f10x_rcc.o(.text)
    RCC_SYSCLKConfig                         0x08000fdf   Thumb Code    18  stm32f10x_rcc.o(.text)
    RCC_GetSYSCLKSource                      0x08000ff1   Thumb Code    10  stm32f10x_rcc.o(.text)
    RCC_HCLKConfig                           0x08000ffb   Thumb Code    18  stm32f10x_rcc.o(.text)
    RCC_PCLK1Config                          0x0800100d   Thumb Code    18  stm32f10x_rcc.o(.text)
    RCC_PCLK2Config                          0x0800101f   Thumb Code    20  stm32f10x_rcc.o(.text)
    RCC_ITConfig                             0x08001033   Thumb Code    26  stm32f10x_rcc.o(.text)
    RCC_OTGFSCLKConfig                       0x0800104d   Thumb Code     8  stm32f10x_rcc.o(.text)
    RCC_ADCCLKConfig                         0x08001055   Thumb Code    18  stm32f10x_rcc.o(.text)
    RCC_I2S2CLKConfig                        0x08001067   Thumb Code     6  stm32f10x_rcc.o(.text)
    RCC_I2S3CLKConfig                        0x0800106d   Thumb Code     8  stm32f10x_rcc.o(.text)
    RCC_LSEConfig                            0x08001075   Thumb Code    50  stm32f10x_rcc.o(.text)
    RCC_LSICmd                               0x080010a7   Thumb Code     6  stm32f10x_rcc.o(.text)
    RCC_RTCCLKConfig                         0x080010ad   Thumb Code    12  stm32f10x_rcc.o(.text)
    RCC_RTCCLKCmd                            0x080010b9   Thumb Code     8  stm32f10x_rcc.o(.text)
    RCC_GetClocksFreq                        0x080010c1   Thumb Code   424  stm32f10x_rcc.o(.text)
    RCC_AHBPeriphClockCmd                    0x08001269   Thumb Code    26  stm32f10x_rcc.o(.text)
    RCC_APB2PeriphClockCmd                   0x08001283   Thumb Code    26  stm32f10x_rcc.o(.text)
    RCC_APB1PeriphClockCmd                   0x0800129d   Thumb Code    26  stm32f10x_rcc.o(.text)
    RCC_AHBPeriphResetCmd                    0x080012b7   Thumb Code    26  stm32f10x_rcc.o(.text)
    RCC_APB2PeriphResetCmd                   0x080012d1   Thumb Code    26  stm32f10x_rcc.o(.text)
    RCC_APB1PeriphResetCmd                   0x080012eb   Thumb Code    26  stm32f10x_rcc.o(.text)
    RCC_BackupResetCmd                       0x08001305   Thumb Code     6  stm32f10x_rcc.o(.text)
    RCC_ClockSecuritySystemCmd               0x0800130b   Thumb Code     6  stm32f10x_rcc.o(.text)
    RCC_MCOConfig                            0x08001311   Thumb Code     6  stm32f10x_rcc.o(.text)
    RCC_ClearFlag                            0x08001317   Thumb Code    14  stm32f10x_rcc.o(.text)
    RCC_GetITStatus                          0x08001325   Thumb Code    20  stm32f10x_rcc.o(.text)
    RCC_ClearITPendingBit                    0x08001339   Thumb Code     6  stm32f10x_rcc.o(.text)
    TIM_DeInit                               0x0800134d   Thumb Code   424  stm32f10x_tim.o(.text)
    TIM_TimeBaseInit                         0x080014f5   Thumb Code   122  stm32f10x_tim.o(.text)
    TIM_OC1Init                              0x0800156f   Thumb Code   132  stm32f10x_tim.o(.text)
    TIM_OC2Init                              0x080015f3   Thumb Code   154  stm32f10x_tim.o(.text)
    TIM_OC3Init                              0x0800168d   Thumb Code   150  stm32f10x_tim.o(.text)
    TIM_OC4Init                              0x08001723   Thumb Code   182  stm32f10x_tim.o(.text)
    TIM_SetIC4Prescaler                      0x080017d9   Thumb Code    26  stm32f10x_tim.o(.text)
    TIM_SetIC3Prescaler                      0x08001875   Thumb Code    18  stm32f10x_tim.o(.text)
    TIM_SetIC2Prescaler                      0x08001901   Thumb Code    26  stm32f10x_tim.o(.text)
    TIM_SetIC1Prescaler                      0x0800199d   Thumb Code    18  stm32f10x_tim.o(.text)
    TIM_ICInit                               0x08001a1b   Thumb Code   150  stm32f10x_tim.o(.text)
    TIM_PWMIConfig                           0x08001ab1   Thumb Code   124  stm32f10x_tim.o(.text)
    TIM_BDTRConfig                           0x08001b2d   Thumb Code    32  stm32f10x_tim.o(.text)
    TIM_TimeBaseStructInit                   0x08001b4d   Thumb Code    18  stm32f10x_tim.o(.text)
    TIM_OCStructInit                         0x08001b5f   Thumb Code    20  stm32f10x_tim.o(.text)
    TIM_ICStructInit                         0x08001b73   Thumb Code    18  stm32f10x_tim.o(.text)
    TIM_BDTRStructInit                       0x08001b85   Thumb Code    40  stm32f10x_tim.o(.text)
    TIM_Cmd                                  0x08001bad   Thumb Code    24  stm32f10x_tim.o(.text)
    TIM_CtrlPWMOutputs                       0x08001bc5   Thumb Code    30  stm32f10x_tim.o(.text)
    TIM_ITConfig                             0x08001be3   Thumb Code    18  stm32f10x_tim.o(.text)
    TIM_GenerateEvent                        0x08001bf5   Thumb Code     4  stm32f10x_tim.o(.text)
    TIM_DMAConfig                            0x08001bf9   Thumb Code    10  stm32f10x_tim.o(.text)
    TIM_DMACmd                               0x08001c03   Thumb Code    18  stm32f10x_tim.o(.text)
    TIM_InternalClockConfig                  0x08001c15   Thumb Code    12  stm32f10x_tim.o(.text)
    TIM_SelectInputTrigger                   0x08001c21   Thumb Code    18  stm32f10x_tim.o(.text)
    TIM_ITRxExternalClockConfig              0x08001c33   Thumb Code    24  stm32f10x_tim.o(.text)
    TIM_TIxExternalClockConfig               0x08001c4b   Thumb Code    62  stm32f10x_tim.o(.text)
    TIM_ETRConfig                            0x08001c89   Thumb Code    28  stm32f10x_tim.o(.text)
    TIM_ETRClockMode1Config                  0x08001ca5   Thumb Code    54  stm32f10x_tim.o(.text)
    TIM_ETRClockMode2Config                  0x08001cdb   Thumb Code    32  stm32f10x_tim.o(.text)
    TIM_PrescalerConfig                      0x08001cfb   Thumb Code     6  stm32f10x_tim.o(.text)
    TIM_CounterModeConfig                    0x08001d01   Thumb Code    18  stm32f10x_tim.o(.text)
    TIM_EncoderInterfaceConfig               0x08001d13   Thumb Code    66  stm32f10x_tim.o(.text)
    TIM_ForcedOC1Config                      0x08001d55   Thumb Code    18  stm32f10x_tim.o(.text)
    TIM_ForcedOC2Config                      0x08001d67   Thumb Code    26  stm32f10x_tim.o(.text)
    TIM_ForcedOC3Config                      0x08001d81   Thumb Code    18  stm32f10x_tim.o(.text)
    TIM_ForcedOC4Config                      0x08001d93   Thumb Code    26  stm32f10x_tim.o(.text)
    TIM_ARRPreloadConfig                     0x08001dad   Thumb Code    24  stm32f10x_tim.o(.text)
    TIM_SelectCOM                            0x08001dc5   Thumb Code    24  stm32f10x_tim.o(.text)
    TIM_SelectCCDMA                          0x08001ddd   Thumb Code    24  stm32f10x_tim.o(.text)
    TIM_CCPreloadControl                     0x08001df5   Thumb Code    24  stm32f10x_tim.o(.text)
    TIM_OC1PreloadConfig                     0x08001e0d   Thumb Code    18  stm32f10x_tim.o(.text)
    TIM_OC2PreloadConfig                     0x08001e1f   Thumb Code    26  stm32f10x_tim.o(.text)
    TIM_OC3PreloadConfig                     0x08001e39   Thumb Code    18  stm32f10x_tim.o(.text)
    TIM_OC4PreloadConfig                     0x08001e4b   Thumb Code    26  stm32f10x_tim.o(.text)
    TIM_OC1FastConfig                        0x08001e65   Thumb Code    18  stm32f10x_tim.o(.text)
    TIM_OC2FastConfig                        0x08001e77   Thumb Code    26  stm32f10x_tim.o(.text)
    TIM_OC3FastConfig                        0x08001e91   Thumb Code    18  stm32f10x_tim.o(.text)
    TIM_OC4FastConfig                        0x08001ea3   Thumb Code    26  stm32f10x_tim.o(.text)
    TIM_ClearOC1Ref                          0x08001ebd   Thumb Code    18  stm32f10x_tim.o(.text)
    TIM_ClearOC2Ref                          0x08001ecf   Thumb Code    24  stm32f10x_tim.o(.text)
    TIM_ClearOC3Ref                          0x08001ee7   Thumb Code    18  stm32f10x_tim.o(.text)
    TIM_ClearOC4Ref                          0x08001ef9   Thumb Code    24  stm32f10x_tim.o(.text)
    TIM_OC1PolarityConfig                    0x08001f11   Thumb Code    18  stm32f10x_tim.o(.text)
    TIM_OC1NPolarityConfig                   0x08001f23   Thumb Code    18  stm32f10x_tim.o(.text)
    TIM_OC2PolarityConfig                    0x08001f35   Thumb Code    26  stm32f10x_tim.o(.text)
    TIM_OC2NPolarityConfig                   0x08001f4f   Thumb Code    26  stm32f10x_tim.o(.text)
    TIM_OC3PolarityConfig                    0x08001f69   Thumb Code    26  stm32f10x_tim.o(.text)
    TIM_OC3NPolarityConfig                   0x08001f83   Thumb Code    26  stm32f10x_tim.o(.text)
    TIM_OC4PolarityConfig                    0x08001f9d   Thumb Code    26  stm32f10x_tim.o(.text)
    TIM_CCxCmd                               0x08001fb7   Thumb Code    30  stm32f10x_tim.o(.text)
    TIM_CCxNCmd                              0x08001fd5   Thumb Code    30  stm32f10x_tim.o(.text)
    TIM_SelectOCxM                           0x08001ff3   Thumb Code    82  stm32f10x_tim.o(.text)
    TIM_UpdateDisableConfig                  0x08002045   Thumb Code    24  stm32f10x_tim.o(.text)
    TIM_UpdateRequestConfig                  0x0800205d   Thumb Code    24  stm32f10x_tim.o(.text)
    TIM_SelectHallSensor                     0x08002075   Thumb Code    24  stm32f10x_tim.o(.text)
    TIM_SelectOnePulseMode                   0x0800208d   Thumb Code    18  stm32f10x_tim.o(.text)
    TIM_SelectOutputTrigger                  0x0800209f   Thumb Code    18  stm32f10x_tim.o(.text)
    TIM_SelectSlaveMode                      0x080020b1   Thumb Code    18  stm32f10x_tim.o(.text)
    TIM_SelectMasterSlaveMode                0x080020c3   Thumb Code    18  stm32f10x_tim.o(.text)
    TIM_SetCounter                           0x080020d5   Thumb Code     4  stm32f10x_tim.o(.text)
    TIM_SetAutoreload                        0x080020d9   Thumb Code     4  stm32f10x_tim.o(.text)
    TIM_SetCompare1                          0x080020dd   Thumb Code     4  stm32f10x_tim.o(.text)
    TIM_SetCompare2                          0x080020e1   Thumb Code     4  stm32f10x_tim.o(.text)
    TIM_SetCompare3                          0x080020e5   Thumb Code     4  stm32f10x_tim.o(.text)
    TIM_SetCompare4                          0x080020e9   Thumb Code     6  stm32f10x_tim.o(.text)
    TIM_SetClockDivision                     0x080020ef   Thumb Code    18  stm32f10x_tim.o(.text)
    TIM_GetCapture1                          0x08002101   Thumb Code     6  stm32f10x_tim.o(.text)
    TIM_GetCapture2                          0x08002107   Thumb Code     6  stm32f10x_tim.o(.text)
    TIM_GetCapture3                          0x0800210d   Thumb Code     6  stm32f10x_tim.o(.text)
    TIM_GetCapture4                          0x08002113   Thumb Code     8  stm32f10x_tim.o(.text)
    TIM_GetCounter                           0x0800211b   Thumb Code     6  stm32f10x_tim.o(.text)
    TIM_GetPrescaler                         0x08002121   Thumb Code     6  stm32f10x_tim.o(.text)
    TIM_GetFlagStatus                        0x08002127   Thumb Code    18  stm32f10x_tim.o(.text)
    TIM_ClearFlag                            0x08002139   Thumb Code     6  stm32f10x_tim.o(.text)
    TIM_GetITStatus                          0x0800213f   Thumb Code    34  stm32f10x_tim.o(.text)
    TIM_ClearITPendingBit                    0x08002161   Thumb Code     6  stm32f10x_tim.o(.text)
    USART_DeInit                             0x08002169   Thumb Code   134  stm32f10x_usart.o(.text)
    USART_Init                               0x080021ef   Thumb Code   210  stm32f10x_usart.o(.text)
    USART_StructInit                         0x080022c1   Thumb Code    24  stm32f10x_usart.o(.text)
    USART_ClockInit                          0x080022d9   Thumb Code    34  stm32f10x_usart.o(.text)
    USART_ClockStructInit                    0x080022fb   Thumb Code    12  stm32f10x_usart.o(.text)
    USART_Cmd                                0x08002307   Thumb Code    24  stm32f10x_usart.o(.text)
    USART_ITConfig                           0x0800231f   Thumb Code    74  stm32f10x_usart.o(.text)
    USART_DMACmd                             0x08002369   Thumb Code    18  stm32f10x_usart.o(.text)
    USART_SetAddress                         0x0800237b   Thumb Code    18  stm32f10x_usart.o(.text)
    USART_WakeUpConfig                       0x0800238d   Thumb Code    18  stm32f10x_usart.o(.text)
    USART_ReceiverWakeUpCmd                  0x0800239f   Thumb Code    24  stm32f10x_usart.o(.text)
    USART_LINBreakDetectLengthConfig         0x080023b7   Thumb Code    18  stm32f10x_usart.o(.text)
    USART_LINCmd                             0x080023c9   Thumb Code    24  stm32f10x_usart.o(.text)
    USART_SendData                           0x080023e1   Thumb Code     8  stm32f10x_usart.o(.text)
    USART_ReceiveData                        0x080023e9   Thumb Code    10  stm32f10x_usart.o(.text)
    USART_SendBreak                          0x080023f3   Thumb Code    10  stm32f10x_usart.o(.text)
    USART_SetGuardTime                       0x080023fd   Thumb Code    16  stm32f10x_usart.o(.text)
    USART_SetPrescaler                       0x0800240d   Thumb Code    16  stm32f10x_usart.o(.text)
    USART_SmartCardCmd                       0x0800241d   Thumb Code    24  stm32f10x_usart.o(.text)
    USART_SmartCardNACKCmd                   0x08002435   Thumb Code    24  stm32f10x_usart.o(.text)
    USART_HalfDuplexCmd                      0x0800244d   Thumb Code    24  stm32f10x_usart.o(.text)
    USART_OverSampling8Cmd                   0x08002465   Thumb Code    22  stm32f10x_usart.o(.text)
    USART_OneBitMethodCmd                    0x0800247b   Thumb Code    24  stm32f10x_usart.o(.text)
    USART_IrDAConfig                         0x08002493   Thumb Code    18  stm32f10x_usart.o(.text)
    USART_IrDACmd                            0x080024a5   Thumb Code    24  stm32f10x_usart.o(.text)
    USART_GetFlagStatus                      0x080024bd   Thumb Code    26  stm32f10x_usart.o(.text)
    USART_ClearFlag                          0x080024d7   Thumb Code    18  stm32f10x_usart.o(.text)
    USART_GetITStatus                        0x080024e9   Thumb Code    84  stm32f10x_usart.o(.text)
    USART_ClearITPendingBit                  0x0800253d   Thumb Code    52  stm32f10x_usart.o(.text)
    main                                     0x08002571   Thumb Code   250  main.o(.text)
    NMI_Handler                              0x080026e9   Thumb Code     2  stm32f10x_it.o(.text)
    HardFault_Handler                        0x080026eb   Thumb Code    10  stm32f10x_it.o(.text)
    MemManage_Handler                        0x080026f5   Thumb Code     4  stm32f10x_it.o(.text)
    BusFault_Handler                         0x080026f9   Thumb Code     4  stm32f10x_it.o(.text)
    UsageFault_Handler                       0x080026fd   Thumb Code     4  stm32f10x_it.o(.text)
    SVC_Handler                              0x08002701   Thumb Code     2  stm32f10x_it.o(.text)
    DebugMon_Handler                         0x08002703   Thumb Code     2  stm32f10x_it.o(.text)
    PendSV_Handler                           0x08002705   Thumb Code     2  stm32f10x_it.o(.text)
    SysTick_Handler                          0x08002707   Thumb Code     2  stm32f10x_it.o(.text)
    USART2_IRQHandler                        0x08002709   Thumb Code   226  stm32f10x_it.o(.text)
    OTG_FS_IRQHandler                        0x080027eb   Thumb Code    10  stm32f10x_it.o(.text)
    TIM6_IRQHandler                          0x080027f5   Thumb Code    32  stm32f10x_it.o(.text)
    USART_Config                             0x08002863   Thumb Code   140  bsp_usart.o(.text)
    Usart_SendByte                           0x080028ef   Thumb Code    30  bsp_usart.o(.text)
    Usart_SendArray                          0x0800290d   Thumb Code    48  bsp_usart.o(.text)
    Usart_SendString                         0x0800293d   Thumb Code    42  bsp_usart.o(.text)
    Usart_SendHalfWord                       0x08002967   Thumb Code    60  bsp_usart.o(.text)
    fputc                                    0x080029a3   Thumb Code    32  bsp_usart.o(.text)
    fgetc                                    0x080029c3   Thumb Code    26  bsp_usart.o(.text)
    Erase_Write_Flash                        0x080029e5   Thumb Code   180  rw_flash.o(.text)
    Internal_Flash_Write                     0x08002a99   Thumb Code    74  rw_flash.o(.text)
    Internal_Flash_Erase                     0x08002ae3   Thumb Code    38  rw_flash.o(.text)
    Internal_Flash_Read                      0x08002b09   Thumb Code    28  rw_flash.o(.text)
    iap_load_app                             0x08002b25   Thumb Code    36  rw_flash.o(.text)
    IAP_Write_Appbin                         0x08002b49   Thumb Code   122  rw_flash.o(.text)
    KEY_Init                                 0x08002bd5   Thumb Code   120  key.o(.text)
    KEY_Value_Scan                           0x08002ccd   Thumb Code    42  key.o(.text)
    CHECK_Key                                0x08002cf7   Thumb Code    98  key.o(.text)
    Checksum_Check                           0x08002d69   Thumb Code    32  user_app.o(.text)
    SoftReset                                0x08002d89   Thumb Code    38  user_app.o(.text)
    fWDG_init                                0x08002daf   Thumb Code    70  user_app.o(.text)
    APP_Updata                               0x08002df5   Thumb Code   306  user_app.o(.text)
    Check_USB_Bin                            0x08002f27   Thumb Code   254  user_app.o(.text)
    MCU_To_Host                              0x08003025   Thumb Code   144  user_app.o(.text)
    Compare_Active_Code                      0x080030b5   Thumb Code    90  user_app.o(.text)
    Store_Active_Code                        0x0800310f   Thumb Code    74  user_app.o(.text)
    TIMER_Init                               0x0800321b   Thumb Code    66  basic_timer.o(.text)
    USBH_Connected                           0x08003261   Thumb Code    12  usbh_core.o(.text)
    USBH_PortEnabled                         0x0800326d   Thumb Code    12  usbh_core.o(.text)
    USBH_PortDisabled                        0x08003279   Thumb Code    12  usbh_core.o(.text)
    USBH_Disconnected                        0x08003285   Thumb Code    40  usbh_core.o(.text)
    USBH_SOF                                 0x080032ad   Thumb Code     6  usbh_core.o(.text)
    USBH_DeInit                              0x080032b3   Thumb Code    58  usbh_core.o(.text)
    USBH_Init                                0x080032ed   Thumb Code    70  usbh_core.o(.text)
    USBH_HandleControl                       0x08003333   Thumb Code   550  usbh_core.o(.text)
    USBH_ErrorHandle                         0x08003559   Thumb Code    46  usbh_core.o(.text)
    USBH_Process                             0x08003761   Thumb Code   478  usbh_core.o(.text)
    USB_OTG_BSP_Resume                       0x0800393f   Thumb Code   124  usbh_core.o(.text)
    USB_OTG_BSP_Suspend                      0x080039bb   Thumb Code    92  usbh_core.o(.text)
    USBH_Open_Channel                        0x08003a17   Thumb Code   154  usbh_hcs.o(.text)
    USBH_Modify_Channel                      0x08003ab1   Thumb Code   100  usbh_hcs.o(.text)
    USBH_Alloc_Channel                       0x08003b3d   Thumb Code    38  usbh_hcs.o(.text)
    USBH_Free_Channel                        0x08003b63   Thumb Code    30  usbh_hcs.o(.text)
    USBH_DeAllocate_AllChannel               0x08003b81   Thumb Code    28  usbh_hcs.o(.text)
    USBH_CtlReq                              0x08003bb5   Thumb Code   100  usbh_ioreq.o(.text)
    USBH_CtlSendSetup                        0x08003c19   Thumb Code    66  usbh_ioreq.o(.text)
    USBH_CtlSendData                         0x08003c5b   Thumb Code   110  usbh_ioreq.o(.text)
    USBH_CtlReceiveData                      0x08003cc9   Thumb Code    70  usbh_ioreq.o(.text)
    USBH_BulkSendData                        0x08003d0f   Thumb Code    94  usbh_ioreq.o(.text)
    USBH_BulkReceiveData                     0x08003d6d   Thumb Code    96  usbh_ioreq.o(.text)
    USBH_InterruptReceiveData                0x08003dcd   Thumb Code   120  usbh_ioreq.o(.text)
    USBH_InterruptSendData                   0x08003e45   Thumb Code   118  usbh_ioreq.o(.text)
    USBH_IsocReceiveData                     0x08003ebb   Thumb Code    70  usbh_ioreq.o(.text)
    USBH_IsocSendData                        0x08003f01   Thumb Code    68  usbh_ioreq.o(.text)
    USBH_GetDescriptor                       0x08003f9d   Thumb Code    68  usbh_stdreq.o(.text)
    USBH_Get_DevDesc                         0x08003fe1   Thumb Code    56  usbh_stdreq.o(.text)
    USBH_GetNextDesc                         0x0800405f   Thumb Code    18  usbh_stdreq.o(.text)
    USBH_ParseCfgDesc                        0x08004071   Thumb Code   300  usbh_stdreq.o(.text)
    USBH_Get_CfgDesc                         0x0800419d   Thumb Code   104  usbh_stdreq.o(.text)
    USBH_Get_StringDesc                      0x0800423b   Thumb Code    60  usbh_stdreq.o(.text)
    USBH_SetAddress                          0x08004277   Thumb Code    38  usbh_stdreq.o(.text)
    USBH_SetCfg                              0x0800429d   Thumb Code    38  usbh_stdreq.o(.text)
    USBH_SetInterface                        0x080042c3   Thumb Code    44  usbh_stdreq.o(.text)
    USBH_SetDeviceFeature                    0x080042ef   Thumb Code    44  usbh_stdreq.o(.text)
    USBH_ClearDeviceFeature                  0x0800431b   Thumb Code    44  usbh_stdreq.o(.text)
    USBH_ClrFeature                          0x08004347   Thumb Code    76  usbh_stdreq.o(.text)
    USBH_MSC_Init                            0x080043a1   Thumb Code    44  usbh_msc_bot.o(.text)
    USBH_MSC_BOT_Abort                       0x080043cd   Thumb Code    86  usbh_msc_bot.o(.text)
    USBH_MSC_DecodeCSW                       0x08004423   Thumb Code   108  usbh_msc_bot.o(.text)
    USBH_MSC_HandleBOTXfer                   0x0800448f   Thumb Code  1048  usbh_msc_bot.o(.text)
    USBH_MSC_ErrorHandle                     0x08004a53   Thumb Code    58  usbh_msc_core.o(.text)
    USBH_MSC_TestUnitReady                   0x08004d6d   Thumb Code   162  usbh_msc_scsi.o(.text)
    USBH_MSC_ReadCapacity10                  0x08004e0f   Thumb Code   202  usbh_msc_scsi.o(.text)
    USBH_MSC_ModeSense6                      0x08004ed9   Thumb Code   192  usbh_msc_scsi.o(.text)
    USBH_MSC_RequestSense                    0x08004f99   Thumb Code   208  usbh_msc_scsi.o(.text)
    USBH_MSC_Write10                         0x08005069   Thumb Code   218  usbh_msc_scsi.o(.text)
    USBH_MSC_Read10                          0x08005143   Thumb Code   272  usbh_msc_scsi.o(.text)
    HCD_Init                                 0x08005261   Thumb Code    96  usb_hcd.o(.text)
    HCD_GetCurrentSpeed                      0x080052c1   Thumb Code    20  usb_hcd.o(.text)
    HCD_ResetPort                            0x080052d5   Thumb Code    14  usb_hcd.o(.text)
    HCD_IsDeviceConnected                    0x080052e3   Thumb Code     8  usb_hcd.o(.text)
    HCD_IsPortEnabled                        0x080052eb   Thumb Code     8  usb_hcd.o(.text)
    HCD_GetCurrentFrame                      0x080052f3   Thumb Code    10  usb_hcd.o(.text)
    HCD_GetURB_State                         0x080052fd   Thumb Code    10  usb_hcd.o(.text)
    HCD_GetXferCnt                           0x08005307   Thumb Code    12  usb_hcd.o(.text)
    HCD_GetHCState                           0x08005313   Thumb Code    10  usb_hcd.o(.text)
    HCD_HC_Init                              0x0800531d   Thumb Code    16  usb_hcd.o(.text)
    HCD_SubmitRequest                        0x0800532d   Thumb Code    32  usb_hcd.o(.text)
    USBH_OTG_ISR_Handler                     0x0800611b   Thumb Code   168  usb_hcd_int.o(.text)
    USB_OTG_WritePacket                      0x08006269   Thumb Code    62  usb_core.o(.text)
    USB_OTG_ReadPacket                       0x080062a7   Thumb Code    40  usb_core.o(.text)
    USB_OTG_SelectCore                       0x080062cf   Thumb Code   204  usb_core.o(.text)
    USB_OTG_CoreInit                         0x0800639b   Thumb Code   294  usb_core.o(.text)
    USB_OTG_EnableGlobalInt                  0x080064c1   Thumb Code    34  usb_core.o(.text)
    USB_OTG_DisableGlobalInt                 0x080064e3   Thumb Code    34  usb_core.o(.text)
    USB_OTG_FlushTxFifo                      0x08006505   Thumb Code    80  usb_core.o(.text)
    USB_OTG_FlushRxFifo                      0x08006555   Thumb Code    70  usb_core.o(.text)
    USB_OTG_SetCurrentMode                   0x0800659b   Thumb Code    78  usb_core.o(.text)
    USB_OTG_GetMode                          0x080065e9   Thumb Code    20  usb_core.o(.text)
    USB_OTG_IsDeviceMode                     0x080065fd   Thumb Code    22  usb_core.o(.text)
    USB_OTG_IsHostMode                       0x08006613   Thumb Code    20  usb_core.o(.text)
    USB_OTG_ReadCoreItr                      0x08006627   Thumb Code    16  usb_core.o(.text)
    USB_OTG_ReadOtgItr                       0x08006637   Thumb Code     8  usb_core.o(.text)
    USB_OTG_EnableHostInt                    0x0800663f   Thumb Code   132  usb_core.o(.text)
    USB_OTG_ReadHPRT0                        0x080066c3   Thumb Code    48  usb_core.o(.text)
    USB_OTG_DriveVbus                        0x080066f3   Thumb Code    92  usb_core.o(.text)
    USB_OTG_ResetPort                        0x0800674f   Thumb Code    64  usb_core.o(.text)
    USB_OTG_InitFSLSPClkSel                  0x0800678f   Thumb Code    24  usb_core.o(.text)
    USB_OTG_CoreInitHost                     0x080067a7   Thumb Code   214  usb_core.o(.text)
    USB_OTG_IsEvenFrame                      0x0800687d   Thumb Code    16  usb_core.o(.text)
    USB_OTG_ReadHostAllChannels_intr         0x0800688d   Thumb Code     8  usb_core.o(.text)
    USB_OTG_HC_Init                          0x08006895   Thumb Code   568  usb_core.o(.text)
    USB_OTG_HC_StartXfer                     0x08006acd   Thumb Code   502  usb_core.o(.text)
    USB_OTG_HC_Halt                          0x08006cc3   Thumb Code   154  usb_core.o(.text)
    USB_OTG_HC_DoPing                        0x08006d5d   Thumb Code    90  usb_core.o(.text)
    USB_OTG_StopHost                         0x08006db7   Thumb Code    96  usb_core.o(.text)
    USB_OTG_BSP_Init                         0x08006e65   Thumb Code    20  usb_bsp.o(.text)
    USB_OTG_BSP_EnableInterrupt              0x08006e79   Thumb Code    40  usb_bsp.o(.text)
    USB_OTG_BSP_DisableInterrupt             0x08006ea1   Thumb Code     2  usb_bsp.o(.text)
    USB_OTG_BSP_DriveVBUS                    0x08006ea3   Thumb Code     2  usb_bsp.o(.text)
    USB_OTG_BSP_ConfigVBUS                   0x08006ea5   Thumb Code     2  usb_bsp.o(.text)
    USB_OTG_BSP_uDelay                       0x08006f29   Thumb Code    12  usb_bsp.o(.text)
    USB_OTG_BSP_mDelay                       0x08006f35   Thumb Code    12  usb_bsp.o(.text)
    USBH_USR_Init                            0x08006f51   Thumb Code     2  usbh_usr.o(.text)
    USBH_USR_DeviceAttached                  0x08006f53   Thumb Code     2  usbh_usr.o(.text)
    USBH_USR_UnrecoveredError                0x08006f55   Thumb Code     2  usbh_usr.o(.text)
    USBH_USR_DeviceDisconnected              0x08006f57   Thumb Code     2  usbh_usr.o(.text)
    USBH_USR_ResetDevice                     0x08006f59   Thumb Code     2  usbh_usr.o(.text)
    USBH_USR_DeviceSpeedDetected             0x08006f5b   Thumb Code    10  usbh_usr.o(.text)
    USBH_USR_Device_DescAvailable            0x08006f65   Thumb Code     4  usbh_usr.o(.text)
    USBH_USR_DeviceAddressAssigned           0x08006f69   Thumb Code     2  usbh_usr.o(.text)
    USBH_USR_Configuration_DescAvailable     0x08006f6b   Thumb Code    16  usbh_usr.o(.text)
    USBH_USR_Manufacturer_String             0x08006f7b   Thumb Code     2  usbh_usr.o(.text)
    USBH_USR_Product_String                  0x08006f7d   Thumb Code     2  usbh_usr.o(.text)
    USBH_USR_SerialNum_String                0x08006f7f   Thumb Code     2  usbh_usr.o(.text)
    USBH_USR_EnumerationDone                 0x08006f81   Thumb Code     2  usbh_usr.o(.text)
    USBH_USR_DeviceNotSupported              0x08006f83   Thumb Code    10  usbh_usr.o(.text)
    USBH_USR_UserInput                       0x08006f8d   Thumb Code    16  usbh_usr.o(.text)
    USBH_USR_OverCurrentDetected             0x08006f9d   Thumb Code    10  usbh_usr.o(.text)
    USBH_USR_MSC_Application                 0x08006fa7   Thumb Code   196  usbh_usr.o(.text)
    USBH_USR_DeInit                          0x0800706b   Thumb Code    16  usbh_usr.o(.text)
    disk_initialize                          0x08007105   Thumb Code    22  diskio.o(.text)
    disk_status                              0x0800711b   Thumb Code     8  diskio.o(.text)
    disk_read                                0x08007123   Thumb Code    76  diskio.o(.text)
    disk_write                               0x0800716f   Thumb Code    76  diskio.o(.text)
    disk_ioctl                               0x080071bb   Thumb Code    64  diskio.o(.text)
    get_fattime                              0x080071fb   Thumb Code     4  diskio.o(.text)
    clust2sect                               0x080073c7   Thumb Code    26  ff.o(.text)
    get_fat                                  0x080073e1   Thumb Code   318  ff.o(.text)
    put_fat                                  0x0800751f   Thumb Code   392  ff.o(.text)
    f_mount                                  0x0800829f   Thumb Code    86  ff.o(.text)
    f_open                                   0x080082f5   Thumb Code   374  ff.o(.text)
    f_read                                   0x0800846b   Thumb Code   482  ff.o(.text)
    f_write                                  0x0800864d   Thumb Code   524  ff.o(.text)
    f_sync                                   0x08008859   Thumb Code   176  ff.o(.text)
    f_close                                  0x08008909   Thumb Code    32  ff.o(.text)
    f_lseek                                  0x08008929   Thumb Code   410  ff.o(.text)
    f_opendir                                0x08008ac3   Thumb Code   110  ff.o(.text)
    f_closedir                               0x08008b31   Thumb Code    22  ff.o(.text)
    f_readdir                                0x08008b47   Thumb Code    88  ff.o(.text)
    f_stat                                   0x08008b9f   Thumb Code    60  ff.o(.text)
    f_getfree                                0x08008bdb   Thumb Code   258  ff.o(.text)
    f_truncate                               0x08008cdd   Thumb Code   184  ff.o(.text)
    f_unlink                                 0x08008d95   Thumb Code   166  ff.o(.text)
    f_mkdir                                  0x08008e3b   Thumb Code   352  ff.o(.text)
    f_chmod                                  0x08008f9b   Thumb Code    84  ff.o(.text)
    f_rename                                 0x08008fef   Thumb Code   258  ff.o(.text)
    f_utime                                  0x080090f1   Thumb Code    86  ff.o(.text)
    __aeabi_memcpy                           0x08009147   Thumb Code    36  memcpya.o(.text)
    __aeabi_memcpy4                          0x08009147   Thumb Code     0  memcpya.o(.text)
    __aeabi_memcpy8                          0x08009147   Thumb Code     0  memcpya.o(.text)
    __aeabi_memset                           0x0800916b   Thumb Code    14  memseta.o(.text)
    __aeabi_memset4                          0x0800916b   Thumb Code     0  memseta.o(.text)
    __aeabi_memset8                          0x0800916b   Thumb Code     0  memseta.o(.text)
    __aeabi_memclr                           0x08009179   Thumb Code     4  memseta.o(.text)
    __aeabi_memclr4                          0x08009179   Thumb Code     0  memseta.o(.text)
    __aeabi_memclr8                          0x08009179   Thumb Code     0  memseta.o(.text)
    _memset$wrapper                          0x0800917d   Thumb Code    18  memseta.o(.text)
    __aeabi_uidiv                            0x0800918f   Thumb Code     0  uidiv.o(.text)
    __aeabi_uidivmod                         0x0800918f   Thumb Code    44  uidiv.o(.text)
    __scatterload                            0x080091bd   Thumb Code    28  init.o(.text)
    __scatterload_rt2                        0x080091bd   Thumb Code     0  init.o(.text)
    __decompress                             0x080091e1   Thumb Code     0  __dczerorl2.o(.text)
    __decompress1                            0x080091e1   Thumb Code    86  __dczerorl2.o(.text)
    __0printf$6                              0x08009239   Thumb Code    22  printf6.o(i.__0printf$6)
    __1printf$6                              0x08009239   Thumb Code     0  printf6.o(i.__0printf$6)
    __2printf                                0x08009239   Thumb Code     0  printf6.o(i.__0printf$6)
    __scatterload_copy                       0x08009259   Thumb Code    14  handlers.o(i.__scatterload_copy)
    __scatterload_null                       0x08009267   Thumb Code     2  handlers.o(i.__scatterload_null)
    __scatterload_zeroinit                   0x08009269   Thumb Code    14  handlers.o(i.__scatterload_zeroinit)
    Region$$Table$$Base                      0x080095d4   Number         0  anon$$obj.o(Region$$Table)
    Region$$Table$$Limit                     0x080095f4   Number         0  anon$$obj.o(Region$$Table)
    SystemCoreClock                          0x20000000   Data           4  system_stm32f10x.o(.data)
    AHBPrescTable                            0x20000004   Data          16  system_stm32f10x.o(.data)
    IAP_CMD                                  0x20000028   Data           4  main.o(.data)
    Jump_account                             0x2000002c   Data           4  main.o(.data)
    RX_Status                                0x20000030   Data           2  stm32f10x_it.o(.data)
    RX_Data_Length                           0x20000032   Data           1  stm32f10x_it.o(.data)
    RX_Data_Account                          0x20000033   Data           1  stm32f10x_it.o(.data)
    jump2app                                 0x20000034   Data           4  rw_flash.o(.data)
    result                                   0x20000038   Data           1  user_app.o(.data)
    fnum                                     0x2000003c   Data           4  user_app.o(.data)
    USBH_HCD_INT_cb                          0x20000040   Data          20  usbh_core.o(.data)
    USBH_HCD_INT_fops                        0x20000054   Data           4  usbh_core.o(.data)
    suspend_flag                             0x20000058   Data           4  usbh_core.o(.data)
    MSC_Setup                                0x2000007c   Data           8  usbh_msc_core.o(.data)
    MSCErrorCount                            0x20000084   Data           1  usbh_msc_core.o(.data)
    USBH_MSC_cb                              0x20000088   Data          16  usbh_msc_core.o(.data)
    USB_Stand_By_Flag                        0x2000009c   Data           1  usbh_usr.o(.data)
    USR_Callbacks                            0x200000a0   Data          72  usbh_usr.o(.data)
    MSG_HOST_INIT                            0x200000e8   Data          28  usbh_usr.o(.data)
    MSG_DEV_ATTACHED                         0x20000104   Data          20  usbh_usr.o(.data)
    MSG_DEV_DISCONNECTED                     0x20000118   Data          23  usbh_usr.o(.data)
    MSG_DEV_ENUMERATED                       0x2000012f   Data          26  usbh_usr.o(.data)
    MSG_DEV_HIGHSPEED                        0x20000149   Data          30  usbh_usr.o(.data)
    MSG_DEV_FULLSPEED                        0x20000167   Data          30  usbh_usr.o(.data)
    MSG_DEV_LOWSPEED                         0x20000185   Data          29  usbh_usr.o(.data)
    MSG_DEV_ERROR                            0x200001a2   Data          17  usbh_usr.o(.data)
    MSG_MSC_CLASS                            0x200001b3   Data          33  usbh_usr.o(.data)
    MSG_HID_CLASS                            0x200001d4   Data          24  usbh_usr.o(.data)
    MSG_DISK_SIZE                            0x200001ec   Data          32  usbh_usr.o(.data)
    MSG_LUN                                  0x2000020c   Data          32  usbh_usr.o(.data)
    MSG_ROOT_CONT                            0x2000022c   Data          28  usbh_usr.o(.data)
    MSG_WR_PROTECT                           0x20000248   Data          31  usbh_usr.o(.data)
    MSG_UNREC_ERROR                          0x20000267   Data          27  usbh_usr.o(.data)
    __stdout                                 0x2000028c   Data           4  stdout.o(.data)
    USB_OTG_Core                             0x20000290   Data        1456  main.o(.bss)
    USB_Host                                 0x20000840   Data         148  main.o(.bss)
    aa                                       0x200008d4   Data          32  main.o(.bss)
    RX_BUF                                   0x200008f4   Data          20  stm32f10x_it.o(.bss)
    iapbuf                                   0x20000908   Data        2048  rw_flash.o(.bss)
    fs                                       0x20001108   Data        4144  user_app.o(.bss)
    file                                     0x20002138   Data        4132  user_app.o(.bss)
    dir                                      0x2000315c   Data          28  user_app.o(.bss)
    fno                                      0x20003178   Data          24  user_app.o(.bss)
    ReadBuffer                               0x20003190   Data        2048  user_app.o(.bss)
    app_buf                                  0x20003990   Data        2048  user_app.o(.bss)
    USB_Buffer                               0x20004190   Data        2048  user_app.o(.bss)
    USBH_CfgDesc                             0x20004990   Data         512  usbh_stdreq.o(.bss)
    USBH_MSC_CBWData                         0x20004b90   Data          32  usbh_msc_bot.o(.bss)
    USBH_MSC_CSWData                         0x20004bb0   Data          16  usbh_msc_bot.o(.bss)
    USBH_MSC_BOTXferParam                    0x20004bc0   Data          16  usbh_msc_bot.o(.bss)
    MSC_Machine                              0x20004bd0   Data          74  usbh_msc_core.o(.bss)
    USBH_MSC_Param                           0x20004c1c   Data          16  usbh_msc_scsi.o(.bss)
    USBH_DataInBuffer                        0x20004c2c   Data         512  usbh_msc_scsi.o(.bss)
    USBH_DataOutBuffer                       0x20004e2c   Data         512  usbh_msc_scsi.o(.bss)
    __initial_sp                             0x20005430   Data           0  startup_stm32f10x_cl.o(STACK)



==============================================================================

Memory Map of the image

  Image Entry point : 0x08000151

  Load Region LR_IROM1 (Base: 0x08000000, Size: 0x00009884, Max: 0x00040000, ABSOLUTE, COMPRESSED[0x00009778])

    Execution Region ER_IROM1 (Base: 0x08000000, Size: 0x000095f4, Max: 0x00040000, ABSOLUTE)

    Base Addr    Size         Type   Attr      Idx    E Section Name        Object

    0x08000000   0x00000150   Data   RO            3    RESET               startup_stm32f10x_cl.o
    0x08000150   0x00000000   Code   RO          857  * .ARM.Collect$$$$00000000  mc_w.l(entry.o)
    0x08000150   0x00000004   Code   RO         1127    .ARM.Collect$$$$00000001  mc_w.l(entry2.o)
    0x08000154   0x00000004   Code   RO         1130    .ARM.Collect$$$$00000004  mc_w.l(entry5.o)
    0x08000158   0x00000000   Code   RO         1132    .ARM.Collect$$$$00000008  mc_w.l(entry7b.o)
    0x08000158   0x00000000   Code   RO         1134    .ARM.Collect$$$$0000000A  mc_w.l(entry8b.o)
    0x08000158   0x00000008   Code   RO         1135    .ARM.Collect$$$$0000000B  mc_w.l(entry9a.o)
    0x08000160   0x00000000   Code   RO         1137    .ARM.Collect$$$$0000000D  mc_w.l(entry10a.o)
    0x08000160   0x00000000   Code   RO         1139    .ARM.Collect$$$$0000000F  mc_w.l(entry11a.o)
    0x08000160   0x00000004   Code   RO         1128    .ARM.Collect$$$$00002712  mc_w.l(entry2.o)
    0x08000164   0x00000006   Code   RO          543    .emb_text           rw_flash.o
    0x0800016a   0x00000002   PAD
    0x0800016c   0x00000024   Code   RO            4    .text               startup_stm32f10x_cl.o
    0x08000190   0x00000284   Code   RO           24    .text               system_stm32f10x.o
    0x08000414   0x000000dc   Code   RO          121    .text               misc.o
    0x080004f0   0x000005bc   Code   RO          245    .text               stm32f10x_flash.o
    0x08000aac   0x0000035c   Code   RO          269    .text               stm32f10x_gpio.o
    0x08000e08   0x00000040   Code   RO          293    .text               stm32f10x_iwdg.o
    0x08000e48   0x00000504   Code   RO          317    .text               stm32f10x_rcc.o
    0x0800134c   0x00000e1a   Code   RO          367    .text               stm32f10x_tim.o
    0x08002166   0x00000002   PAD
    0x08002168   0x00000408   Code   RO          379    .text               stm32f10x_usart.o
    0x08002570   0x00000178   Code   RO          403    .text               main.o
    0x080026e8   0x00000154   Code   RO          511    .text               stm32f10x_it.o
    0x0800283c   0x000001a8   Code   RO          531    .text               bsp_usart.o
    0x080029e4   0x000001f0   Code   RO          544    .text               rw_flash.o
    0x08002bd4   0x00000194   Code   RO          569    .text               key.o
    0x08002d68   0x00000488   Code   RO          585    .text               user_app.o
    0x080031f0   0x00000070   Code   RO          609    .text               basic_timer.o
    0x08003260   0x000007b6   Code   RO          621    .text               usbh_core.o
    0x08003a16   0x00000186   Code   RO          642    .text               usbh_hcs.o
    0x08003b9c   0x000003a8   Code   RO          654    .text               usbh_ioreq.o
    0x08003f44   0x0000045c   Code   RO          666    .text               usbh_stdreq.o
    0x080043a0   0x0000051c   Code   RO          685    .text               usbh_msc_bot.o
    0x080048bc   0x000004b0   Code   RO          704    .text               usbh_msc_core.o
    0x08004d6c   0x000004f4   Code   RO          723    .text               usbh_msc_scsi.o
    0x08005260   0x000000ec   Code   RO          742    .text               usb_hcd.o
    0x0800534c   0x00000e7c   Code   RO          754    .text               usb_hcd_int.o
    0x080061c8   0x00000c4e   Code   RO          766    .text               usb_core.o
    0x08006e16   0x00000002   PAD
    0x08006e18   0x00000138   Code   RO          778    .text               usb_bsp.o
    0x08006f50   0x000001b4   Code   RO          797    .text               usbh_usr.o
    0x08007104   0x0000010c   Code   RO          827    .text               diskio.o
    0x08007210   0x00001f36   Code   RO          843    .text               ff.o
    0x08009146   0x00000024   Code   RO          860    .text               mc_w.l(memcpya.o)
    0x0800916a   0x00000024   Code   RO          862    .text               mc_w.l(memseta.o)
    0x0800918e   0x0000002c   Code   RO         1142    .text               mc_w.l(uidiv.o)
    0x080091ba   0x00000002   PAD
    0x080091bc   0x00000024   Code   RO         1157    .text               mc_w.l(init.o)
    0x080091e0   0x00000056   Code   RO         1175    .text               mc_w.l(__dczerorl2.o)
    0x08009236   0x00000002   PAD
    0x08009238   0x00000020   Code   RO         1021    i.__0printf$6       mc_w.l(printf6.o)
    0x08009258   0x0000000e   Code   RO         1169    i.__scatterload_copy  mc_w.l(handlers.o)
    0x08009266   0x00000002   Code   RO         1170    i.__scatterload_null  mc_w.l(handlers.o)
    0x08009268   0x0000000e   Code   RO         1171    i.__scatterload_zeroinit  mc_w.l(handlers.o)
    0x08009276   0x00000002   PAD
    0x08009278   0x000002f0   Code   RO         1028    i._printf_core      mc_w.l(printf6.o)
    0x08009568   0x00000024   Code   RO         1029    i._printf_post_padding  mc_w.l(printf6.o)
    0x0800958c   0x0000002e   Code   RO         1030    i._printf_pre_padding  mc_w.l(printf6.o)
    0x080095ba   0x00000002   PAD
    0x080095bc   0x00000016   Data   RO          587    .constdata          user_app.o
    0x080095d2   0x00000002   PAD
    0x080095d4   0x00000020   Data   RO         1167    Region$$Table       anon$$obj.o


    Execution Region RW_IRAM1 (Base: 0x20000000, Size: 0x00005430, Max: 0x00010000, ABSOLUTE, COMPRESSED[0x00000184])

    Base Addr    Size         Type   Attr      Idx    E Section Name        Object

    0x20000000   0x00000014   Data   RW           25    .data               system_stm32f10x.o
    0x20000014   0x00000014   Data   RW          318    .data               stm32f10x_rcc.o
    0x20000028   0x00000008   Data   RW          405    .data               main.o
    0x20000030   0x00000004   Data   RW          513    .data               stm32f10x_it.o
    0x20000034   0x00000004   Data   RW          546    .data               rw_flash.o
    0x20000038   0x00000008   Data   RW          588    .data               user_app.o
    0x20000040   0x0000001e   Data   RW          622    .data               usbh_core.o
    0x2000005e   0x00000003   Data   RW          668    .data               usbh_stdreq.o
    0x20000061   0x00000003   PAD
    0x20000064   0x00000015   Data   RW          687    .data               usbh_msc_bot.o
    0x20000079   0x00000003   PAD
    0x2000007c   0x0000001d   Data   RW          706    .data               usbh_msc_core.o
    0x20000099   0x00000001   Data   RW          725    .data               usbh_msc_scsi.o
    0x2000009a   0x00000002   PAD
    0x2000009c   0x000001e6   Data   RW          798    .data               usbh_usr.o
    0x20000282   0x00000002   PAD
    0x20000284   0x00000006   Data   RW          844    .data               ff.o
    0x2000028a   0x00000002   PAD
    0x2000028c   0x00000004   Data   RW         1141    .data               mc_w.l(stdout.o)
    0x20000290   0x00000664   Zero   RW          404    .bss                main.o
    0x200008f4   0x00000014   Zero   RW          512    .bss                stm32f10x_it.o
    0x20000908   0x00000800   Zero   RW          545    .bss                rw_flash.o
    0x20001108   0x00003888   Zero   RW          586    .bss                user_app.o
    0x20004990   0x00000200   Zero   RW          667    .bss                usbh_stdreq.o
    0x20004b90   0x00000040   Zero   RW          686    .bss                usbh_msc_bot.o
    0x20004bd0   0x0000004a   Zero   RW          705    .bss                usbh_msc_core.o
    0x20004c1a   0x00000002   PAD
    0x20004c1c   0x00000410   Zero   RW          724    .bss                usbh_msc_scsi.o
    0x2000502c   0x00000004   PAD
    0x20005030   0x00000400   Zero   RW            1    STACK               startup_stm32f10x_cl.o


==============================================================================

Image component sizes


      Code (inc. data)   RO Data    RW Data    ZI Data      Debug   Object Name

       112          4          0          0          0        677   basic_timer.o
       424          8          0          0          0       2502   bsp_usart.o
         0          0          0          0          0       4504   core_cm3.o
       268         18          0          0          0       3234   diskio.o
      7990         42          0          6          0      21707   ff.o
       404         16          0          0          0      16843   key.o
       376        126          0          8       1636      33169   main.o
       220         22          0          0          0       1817   misc.o
       502         18          0          4       2048       6826   rw_flash.o
        36          8        336          0       1024        860   startup_stm32f10x_cl.o
      1468         34          0          0          0       8046   stm32f10x_flash.o
       860         38          0          0          0       5657   stm32f10x_gpio.o
       340         40          0          4         20       2828   stm32f10x_it.o
        64          6          0          0          0       1273   stm32f10x_iwdg.o
      1284         64          0         20          0      11198   stm32f10x_rcc.o
      3610         88          0          0          0      22148   stm32f10x_tim.o
      1032         22          0          0          0       8388   stm32f10x_usart.o
       644         48          0         20          0     277859   system_stm32f10x.o
       312         16          0          0          0      18142   usb_bsp.o
      3150          8          0          0          0       9822   usb_core.o
       236          0          0          0          0       3238   usb_hcd.o
      3708         10          0          0          0       6691   usb_hcd_int.o
      1974         44          0         30          0       7026   usbh_core.o
       390          0          0          0          0       2580   usbh_hcs.o
       936          0          0          0          0       4420   usbh_ioreq.o
      1308         90          0         21         64       5791   usbh_msc_bot.o
      1200        336          0         29         74       4161   usbh_msc_core.o
      1268         40          0          1       1040       5310   usbh_msc_scsi.o
      1116         14          0          3        512       6757   usbh_stdreq.o
       436        138          0        486          0       5309   usbh_usr.o
      1160        152         22          8      14472      19227   user_app.o

    ----------------------------------------------------------------------
     36834       1450        392        652      20896     528010   Object Totals
         0          0         32          0          0          0   (incl. Generated)
         6          0          2         12          6          0   (incl. Padding)

    ----------------------------------------------------------------------

      Code (inc. data)   RO Data    RW Data    ZI Data      Debug   Library Member Name

        86          0          0          0          0          0   __dczerorl2.o
         0          0          0          0          0          0   entry.o
         0          0          0          0          0          0   entry10a.o
         0          0          0          0          0          0   entry11a.o
         8          4          0          0          0          0   entry2.o
         4          0          0          0          0          0   entry5.o
         0          0          0          0          0          0   entry7b.o
         0          0          0          0          0          0   entry8b.o
         8          4          0          0          0          0   entry9a.o
        30          0          0          0          0          0   handlers.o
        36          8          0          0          0         68   init.o
        36          0          0          0          0         68   memcpya.o
        36          0          0          0          0        108   memseta.o
       866         14          0          0          0        352   printf6.o
         0          0          0          4          0          0   stdout.o
        44          0          0          0          0         80   uidiv.o

    ----------------------------------------------------------------------
      1162         30          0          4          0        676   Library Totals
         8          0          0          0          0          0   (incl. Padding)

    ----------------------------------------------------------------------

      Code (inc. data)   RO Data    RW Data    ZI Data      Debug   Library Name

      1154         30          0          4          0        676   mc_w.l

    ----------------------------------------------------------------------
      1162         30          0          4          0        676   Library Totals

    ----------------------------------------------------------------------

==============================================================================


      Code (inc. data)   RO Data    RW Data    ZI Data      Debug   

     37996       1480        392        656      20896     525694   Grand Totals
     37996       1480        392        388      20896     525694   ELF Image Totals (compressed)
     37996       1480        392        388          0          0   ROM Totals

==============================================================================

    Total RO  Size (Code + RO Data)                38388 (  37.49kB)
    Total RW  Size (RW Data + ZI Data)             21552 (  21.05kB)
    Total ROM Size (Code + RO Data + RW Data)      38776 (  37.87kB)

==============================================================================

